{
  "contractName": "Melovibz",
  "abi": [
    {
      "inputs": [],
      "stateMutability": "nonpayable",
      "type": "constructor"
    },
    {
      "anonymous": false,
      "inputs": [
        {
          "indexed": true,
          "internalType": "address",
          "name": "artist",
          "type": "address"
        },
        {
          "indexed": true,
          "internalType": "address",
          "name": "donor",
          "type": "address"
        },
        {
          "indexed": false,
          "internalType": "uint256",
          "name": "amount",
          "type": "uint256"
        }
      ],
      "name": "DonationMade",
      "type": "event"
    },
    {
      "inputs": [
        {
          "internalType": "address",
          "name": "",
          "type": "address"
        }
      ],
      "name": "allUsers",
      "outputs": [
        {
          "internalType": "string",
          "name": "name",
          "type": "string"
        },
        {
          "internalType": "uint256",
          "name": "userID",
          "type": "uint256"
        }
      ],
      "stateMutability": "view",
      "type": "function",
      "constant": true
    },
    {
      "inputs": [],
      "name": "number_of_songs",
      "outputs": [
        {
          "internalType": "uint256",
          "name": "",
          "type": "uint256"
        }
      ],
      "stateMutability": "view",
      "type": "function",
      "constant": true
    },
    {
      "inputs": [],
      "name": "number_of_users",
      "outputs": [
        {
          "internalType": "uint256",
          "name": "",
          "type": "uint256"
        }
      ],
      "stateMutability": "view",
      "type": "function",
      "constant": true
    },
    {
      "inputs": [
        {
          "internalType": "uint256",
          "name": "",
          "type": "uint256"
        }
      ],
      "name": "songs",
      "outputs": [
        {
          "internalType": "uint256",
          "name": "songID",
          "type": "uint256"
        },
        {
          "internalType": "string",
          "name": "ipfsHash",
          "type": "string"
        },
        {
          "internalType": "address",
          "name": "owner",
          "type": "address"
        }
      ],
      "stateMutability": "view",
      "type": "function",
      "constant": true
    },
    {
      "inputs": [
        {
          "internalType": "uint256",
          "name": "",
          "type": "uint256"
        }
      ],
      "name": "userAddresses",
      "outputs": [
        {
          "internalType": "address",
          "name": "",
          "type": "address"
        }
      ],
      "stateMutability": "view",
      "type": "function",
      "constant": true
    },
    {
      "inputs": [
        {
          "internalType": "string",
          "name": "",
          "type": "string"
        }
      ],
      "name": "userAddressesByName",
      "outputs": [
        {
          "internalType": "address",
          "name": "",
          "type": "address"
        }
      ],
      "stateMutability": "view",
      "type": "function",
      "constant": true
    },
    {
      "inputs": [
        {
          "internalType": "string",
          "name": "_name",
          "type": "string"
        }
      ],
      "name": "add_new_user",
      "outputs": [],
      "stateMutability": "nonpayable",
      "type": "function"
    },
    {
      "inputs": [],
      "name": "getuserAddresses",
      "outputs": [
        {
          "internalType": "address[]",
          "name": "",
          "type": "address[]"
        }
      ],
      "stateMutability": "view",
      "type": "function",
      "constant": true
    },
    {
      "inputs": [
        {
          "internalType": "address",
          "name": "user",
          "type": "address"
        }
      ],
      "name": "isUserRegistered",
      "outputs": [
        {
          "internalType": "bool",
          "name": "",
          "type": "bool"
        }
      ],
      "stateMutability": "view",
      "type": "function",
      "constant": true
    },
    {
      "inputs": [
        {
          "internalType": "address",
          "name": "user",
          "type": "address"
        }
      ],
      "name": "get_user_name",
      "outputs": [
        {
          "internalType": "string",
          "name": "",
          "type": "string"
        }
      ],
      "stateMutability": "view",
      "type": "function",
      "constant": true
    },
    {
      "inputs": [
        {
          "internalType": "string",
          "name": "_name",
          "type": "string"
        }
      ],
      "name": "getUserAddressByName",
      "outputs": [
        {
          "internalType": "address",
          "name": "",
          "type": "address"
        }
      ],
      "stateMutability": "view",
      "type": "function",
      "constant": true
    },
    {
      "inputs": [
        {
          "internalType": "address",
          "name": "artistAddress",
          "type": "address"
        }
      ],
      "name": "donateArtist",
      "outputs": [],
      "stateMutability": "payable",
      "type": "function",
      "payable": true
    },
    {
      "inputs": [
        {
          "internalType": "string",
          "name": "_ipfsHash",
          "type": "string"
        }
      ],
      "name": "publishSong",
      "outputs": [],
      "stateMutability": "nonpayable",
      "type": "function"
    },
    {
      "inputs": [
        {
          "internalType": "address",
          "name": "user",
          "type": "address"
        }
      ],
      "name": "getUserSongs",
      "outputs": [
        {
          "internalType": "uint256[]",
          "name": "",
          "type": "uint256[]"
        }
      ],
      "stateMutability": "view",
      "type": "function",
      "constant": true
    },
    {
      "inputs": [
        {
          "internalType": "uint256",
          "name": "songID",
          "type": "uint256"
        }
      ],
      "name": "getSong",
      "outputs": [
        {
          "internalType": "uint256",
          "name": "",
          "type": "uint256"
        },
        {
          "internalType": "string",
          "name": "",
          "type": "string"
        },
        {
          "internalType": "address",
          "name": "",
          "type": "address"
        }
      ],
      "stateMutability": "view",
      "type": "function",
      "constant": true
    }
  ],
  "bytecode": "0x608060405234801561001057600080fd5b50600080819055506000600181905550611f068061002f6000396000f3fe6080604052600436106100e85760003560e01c806342acaa661161008a578063b699a7bb11610059578063b699a7bb14610346578063d5b9789314610362578063eae4b0e71461038b578063edbece37146103c8576100e8565b806342acaa66146102645780634abec571146102a35780634b544d68146102cc578063502c9bd514610309576100e8565b806322821132116100c657806322821132146101925780632a993fa6146101bd5780632b9575aa146101e8578063304cff3014610225576100e8565b806307e084eb146100ed5780630989777f1461012a578063163f752214610155575b600080fd5b3480156100f957600080fd5b50610114600480360381019061010f9190611426565b610406565b60405161012191906114b0565b60405180910390f35b34801561013657600080fd5b5061013f6104c2565b60405161014c9190611589565b60405180910390f35b34801561016157600080fd5b5061017c600480360381019061017791906115d7565b610550565b604051610189919061161f565b60405180910390f35b34801561019e57600080fd5b506101a761059f565b6040516101b49190611653565b60405180910390f35b3480156101c957600080fd5b506101d26105a5565b6040516101df9190611653565b60405180910390f35b3480156101f457600080fd5b5061020f600480360381019061020a91906115d7565b6105ab565b60405161021c91906116f6565b60405180910390f35b34801561023157600080fd5b5061024c60048036038101906102479190611744565b61067f565b60405161025b93929190611771565b60405180910390f35b34801561027057600080fd5b5061028b60048036038101906102869190611744565b610751565b60405161029a93929190611771565b60405180910390f35b3480156102af57600080fd5b506102ca60048036038101906102c59190611426565b6108d9565b005b3480156102d857600080fd5b506102f360048036038101906102ee91906115d7565b610bd9565b604051610300919061186d565b60405180910390f35b34801561031557600080fd5b50610330600480360381019061032b9190611744565b610c73565b60405161033d91906114b0565b60405180910390f35b610360600480360381019061035b91906115d7565b610cb2565b005b34801561036e57600080fd5b5061038960048036038101906103849190611426565b610e13565b005b34801561039757600080fd5b506103b260048036038101906103ad9190611426565b6110c6565b6040516103bf91906114b0565b60405180910390f35b3480156103d457600080fd5b506103ef60048036038101906103ea91906115d7565b61110f565b6040516103fd92919061188f565b60405180910390f35b60008060038360405161041991906118fb565b908152602001604051809103902060009054906101000a900473ffffffffffffffffffffffffffffffffffffffff169050600073ffffffffffffffffffffffffffffffffffffffff168173ffffffffffffffffffffffffffffffffffffffff16036104b9576040517f08c379a00000000000000000000000000000000000000000000000000000000081526004016104b09061195e565b60405180910390fd5b80915050919050565b6060600580548060200260200160405190810160405280929190818152602001828054801561054657602002820191906000526020600020905b8160009054906101000a900473ffffffffffffffffffffffffffffffffffffffff1673ffffffffffffffffffffffffffffffffffffffff16815260200190600101908083116104fc575b5050505050905090565b600080600260008473ffffffffffffffffffffffffffffffffffffffff1673ffffffffffffffffffffffffffffffffffffffff1681526020019081526020016000206001015414159050919050565b60005481565b60015481565b6060600260008373ffffffffffffffffffffffffffffffffffffffff1673ffffffffffffffffffffffffffffffffffffffff16815260200190815260200160002060000180546105fa906119ad565b80601f0160208091040260200160405190810160405280929190818152602001828054610626906119ad565b80156106735780601f1061064857610100808354040283529160200191610673565b820191906000526020600020905b81548152906001019060200180831161065657829003601f168201915b50505050509050919050565b60046020528060005260406000206000915090508060000154908060010180546106a8906119ad565b80601f01602080910402602001604051908101604052809291908181526020018280546106d4906119ad565b80156107215780601f106106f657610100808354040283529160200191610721565b820191906000526020600020905b81548152906001019060200180831161070457829003601f168201915b5050505050908060020160009054906101000a900473ffffffffffffffffffffffffffffffffffffffff16905083565b60006060600060015484111580156107695750600084115b6107a8576040517f08c379a000000000000000000000000000000000000000000000000000000000815260040161079f90611a2a565b60405180910390fd5b600060046000868152602001908152602001600020604051806060016040529081600082015481526020016001820180546107e2906119ad565b80601f016020809104026020016040519081016040528092919081815260200182805461080e906119ad565b801561085b5780601f106108305761010080835404028352916020019161085b565b820191906000526020600020905b81548152906001019060200180831161083e57829003601f168201915b505050505081526020016002820160009054906101000a900473ffffffffffffffffffffffffffffffffffffffff1673ffffffffffffffffffffffffffffffffffffffff1673ffffffffffffffffffffffffffffffffffffffff16815250509050806000015181602001518260400151935093509350509193909250565b6000600260003373ffffffffffffffffffffffffffffffffffffffff1673ffffffffffffffffffffffffffffffffffffffff168152602001908152602001600020600101540361095e576040517f08c379a000000000000000000000000000000000000000000000000000000000815260040161095590611a96565b60405180910390fd5b60005b600260003373ffffffffffffffffffffffffffffffffffffffff1673ffffffffffffffffffffffffffffffffffffffff16815260200190815260200160002060020180549050811015610a98576000600260003373ffffffffffffffffffffffffffffffffffffffff1673ffffffffffffffffffffffffffffffffffffffff1681526020019081526020016000206002018281548110610a0457610a03611ab6565b5b90600052602060002001549050828051906020012060046000838152602001908152602001600020600101604051610a3c9190611b84565b604051809103902003610a84576040517f08c379a0000000000000000000000000000000000000000000000000000000008152600401610a7b90611c0d565b60405180910390fd5b508080610a9090611c5c565b915050610961565b506001806000828254610aab9190611ca4565b92505081905550604051806060016040528060015481526020018281526020013373ffffffffffffffffffffffffffffffffffffffff16815250600460006001548152602001908152602001600020600082015181600001556020820151816001019080519060200190610b209291906111bb565b5060408201518160020160006101000a81548173ffffffffffffffffffffffffffffffffffffffff021916908373ffffffffffffffffffffffffffffffffffffffff160217905550905050600260003373ffffffffffffffffffffffffffffffffffffffff1673ffffffffffffffffffffffffffffffffffffffff168152602001908152602001600020600201600154908060018154018082558091505060019003906000526020600020016000909190919091505550565b6060600260008373ffffffffffffffffffffffffffffffffffffffff1673ffffffffffffffffffffffffffffffffffffffff168152602001908152602001600020600201805480602002602001604051908101604052809291908181526020018280548015610c6757602002820191906000526020600020905b815481526020019060010190808311610c53575b50505050509050919050565b60058181548110610c8357600080fd5b906000526020600020016000915054906101000a900473ffffffffffffffffffffffffffffffffffffffff1681565b60003411610cf5576040517f08c379a0000000000000000000000000000000000000000000000000000000008152600401610cec90611d6c565b60405180910390fd5b600073ffffffffffffffffffffffffffffffffffffffff168173ffffffffffffffffffffffffffffffffffffffff1603610d64576040517f08c379a0000000000000000000000000000000000000000000000000000000008152600401610d5b90611dd8565b60405180910390fd5b8073ffffffffffffffffffffffffffffffffffffffff166108fc349081150290604051600060405180830381858888f19350505050158015610daa573d6000803e3d6000fd5b503373ffffffffffffffffffffffffffffffffffffffff168173ffffffffffffffffffffffffffffffffffffffff167f70c6bc6cf53707fb5561feef795d557f7e46f57bd4f1a13ce36e9ffdf58d38bb34604051610e089190611653565b60405180910390a350565b6000600260003373ffffffffffffffffffffffffffffffffffffffff1673ffffffffffffffffffffffffffffffffffffffff1681526020019081526020016000206001015414610e98576040517f08c379a0000000000000000000000000000000000000000000000000000000008152600401610e8f90611e44565b60405180910390fd5b600073ffffffffffffffffffffffffffffffffffffffff16600382604051610ec091906118fb565b908152602001604051809103902060009054906101000a900473ffffffffffffffffffffffffffffffffffffffff1673ffffffffffffffffffffffffffffffffffffffff1614610f45576040517f08c379a0000000000000000000000000000000000000000000000000000000008152600401610f3c90611eb0565b60405180910390fd5b6001600080828254610f579190611ca4565b92505081905550610f66611241565b81816000018190525060005481602001818152505080600260003373ffffffffffffffffffffffffffffffffffffffff1673ffffffffffffffffffffffffffffffffffffffff1681526020019081526020016000206000820151816000019080519060200190610fd79291906111bb565b50602082015181600101556040820151816002019080519060200190610ffe929190611262565b509050506005339080600181540180825580915050600190039060005260206000200160009091909190916101000a81548173ffffffffffffffffffffffffffffffffffffffff021916908373ffffffffffffffffffffffffffffffffffffffff1602179055503360038360405161107691906118fb565b908152602001604051809103902060006101000a81548173ffffffffffffffffffffffffffffffffffffffff021916908373ffffffffffffffffffffffffffffffffffffffff1602179055505050565b6003818051602081018201805184825260208301602085012081835280955050505050506000915054906101000a900473ffffffffffffffffffffffffffffffffffffffff1681565b6002602052806000526040600020600091509050806000018054611132906119ad565b80601f016020809104026020016040519081016040528092919081815260200182805461115e906119ad565b80156111ab5780601f10611180576101008083540402835291602001916111ab565b820191906000526020600020905b81548152906001019060200180831161118e57829003601f168201915b5050505050908060010154905082565b8280546111c7906119ad565b90600052602060002090601f0160209004810192826111e95760008555611230565b82601f1061120257805160ff1916838001178555611230565b82800160010185558215611230579182015b8281111561122f578251825591602001919060010190611214565b5b50905061123d91906112af565b5090565b60405180606001604052806060815260200160008152602001606081525090565b82805482825590600052602060002090810192821561129e579160200282015b8281111561129d578251825591602001919060010190611282565b5b5090506112ab91906112af565b5090565b5b808211156112c85760008160009055506001016112b0565b5090565b6000604051905090565b600080fd5b600080fd5b600080fd5b600080fd5b6000601f19601f8301169050919050565b7f4e487b7100000000000000000000000000000000000000000000000000000000600052604160045260246000fd5b611333826112ea565b810181811067ffffffffffffffff82111715611352576113516112fb565b5b80604052505050565b60006113656112cc565b9050611371828261132a565b919050565b600067ffffffffffffffff821115611391576113906112fb565b5b61139a826112ea565b9050602081019050919050565b82818337600083830152505050565b60006113c96113c484611376565b61135b565b9050828152602081018484840111156113e5576113e46112e5565b5b6113f08482856113a7565b509392505050565b600082601f83011261140d5761140c6112e0565b5b813561141d8482602086016113b6565b91505092915050565b60006020828403121561143c5761143b6112d6565b5b600082013567ffffffffffffffff81111561145a576114596112db565b5b611466848285016113f8565b91505092915050565b600073ffffffffffffffffffffffffffffffffffffffff82169050919050565b600061149a8261146f565b9050919050565b6114aa8161148f565b82525050565b60006020820190506114c560008301846114a1565b92915050565b600081519050919050565b600082825260208201905092915050565b6000819050602082019050919050565b6115008161148f565b82525050565b600061151283836114f7565b60208301905092915050565b6000602082019050919050565b6000611536826114cb565b61154081856114d6565b935061154b836114e7565b8060005b8381101561157c5781516115638882611506565b975061156e8361151e565b92505060018101905061154f565b5085935050505092915050565b600060208201905081810360008301526115a3818461152b565b905092915050565b6115b48161148f565b81146115bf57600080fd5b50565b6000813590506115d1816115ab565b92915050565b6000602082840312156115ed576115ec6112d6565b5b60006115fb848285016115c2565b91505092915050565b60008115159050919050565b61161981611604565b82525050565b60006020820190506116346000830184611610565b92915050565b6000819050919050565b61164d8161163a565b82525050565b60006020820190506116686000830184611644565b92915050565b600081519050919050565b600082825260208201905092915050565b60005b838110156116a857808201518184015260208101905061168d565b838111156116b7576000848401525b50505050565b60006116c88261166e565b6116d28185611679565b93506116e281856020860161168a565b6116eb816112ea565b840191505092915050565b6000602082019050818103600083015261171081846116bd565b905092915050565b6117218161163a565b811461172c57600080fd5b50565b60008135905061173e81611718565b92915050565b60006020828403121561175a576117596112d6565b5b60006117688482850161172f565b91505092915050565b60006060820190506117866000830186611644565b818103602083015261179881856116bd565b90506117a760408301846114a1565b949350505050565b600081519050919050565b600082825260208201905092915050565b6000819050602082019050919050565b6117e48161163a565b82525050565b60006117f683836117db565b60208301905092915050565b6000602082019050919050565b600061181a826117af565b61182481856117ba565b935061182f836117cb565b8060005b8381101561186057815161184788826117ea565b975061185283611802565b925050600181019050611833565b5085935050505092915050565b60006020820190508181036000830152611887818461180f565b905092915050565b600060408201905081810360008301526118a981856116bd565b90506118b86020830184611644565b9392505050565b600081905092915050565b60006118d58261166e565b6118df81856118bf565b93506118ef81856020860161168a565b80840191505092915050565b600061190782846118ca565b915081905092915050565b7f417274697374206e6f7420666f756e642e000000000000000000000000000000600082015250565b6000611948601183611679565b915061195382611912565b602082019050919050565b600060208201905081810360008301526119778161193b565b9050919050565b7f4e487b7100000000000000000000000000000000000000000000000000000000600052602260045260246000fd5b600060028204905060018216806119c557607f821691505b6020821081036119d8576119d761197e565b5b50919050565b7f536f6e6720646f6573206e6f742065786973742e000000000000000000000000600082015250565b6000611a14601483611679565b9150611a1f826119de565b602082019050919050565b60006020820190508181036000830152611a4381611a07565b9050919050565b7f55736572206e6f7420726567697374657265642e000000000000000000000000600082015250565b6000611a80601483611679565b9150611a8b82611a4a565b602082019050919050565b60006020820190508181036000830152611aaf81611a73565b9050919050565b7f4e487b7100000000000000000000000000000000000000000000000000000000600052603260045260246000fd5b600081905092915050565b60008190508160005260206000209050919050565b60008154611b12816119ad565b611b1c8186611ae5565b94506001821660008114611b375760018114611b4857611b7b565b60ff19831686528186019350611b7b565b611b5185611af0565b60005b83811015611b7357815481890152600182019150602081019050611b54565b838801955050505b50505092915050565b6000611b908284611b05565b915081905092915050565b7f536f6e6720616c72656164792075706c6f61646564206279207468697320757360008201527f65722e0000000000000000000000000000000000000000000000000000000000602082015250565b6000611bf7602383611679565b9150611c0282611b9b565b604082019050919050565b60006020820190508181036000830152611c2681611bea565b9050919050565b7f4e487b7100000000000000000000000000000000000000000000000000000000600052601160045260246000fd5b6000611c678261163a565b91507fffffffffffffffffffffffffffffffffffffffffffffffffffffffffffffffff8203611c9957611c98611c2d565b5b600182019050919050565b6000611caf8261163a565b9150611cba8361163a565b9250827fffffffffffffffffffffffffffffffffffffffffffffffffffffffffffffffff03821115611cef57611cee611c2d565b5b828201905092915050565b7f446f6e6174696f6e20616d6f756e74206d75737420626520677265617465722060008201527f7468616e207a65726f0000000000000000000000000000000000000000000000602082015250565b6000611d56602983611679565b9150611d6182611cfa565b604082019050919050565b60006020820190508181036000830152611d8581611d49565b9050919050565b7f496e76616c696420617274697374206164647265737300000000000000000000600082015250565b6000611dc2601683611679565b9150611dcd82611d8c565b602082019050919050565b60006020820190508181036000830152611df181611db5565b9050919050565b7f5573657220616c726561647920726567697374657265642e0000000000000000600082015250565b6000611e2e601883611679565b9150611e3982611df8565b602082019050919050565b60006020820190508181036000830152611e5d81611e21565b9050919050565b7f557365726e616d6520616c72656164792074616b656e2e000000000000000000600082015250565b6000611e9a601783611679565b9150611ea582611e64565b602082019050919050565b60006020820190508181036000830152611ec981611e8d565b905091905056fea2646970667358221220324e03e57bb7dbdada6bbfaa3b3fd7f92b8b8a76c2481fcfcdc5405a166e31b764736f6c634300080d0033",
  "immutableReferences": {},
  "source": "pragma solidity >=0.4.22 <0.9.0;\r\n\r\ncontract Melovibz {\r\n\r\n    uint256 public number_of_users;\r\n    uint256 public number_of_songs;\r\n\r\n    mapping(address => User) public allUsers;\r\n    mapping(string => address) public userAddressesByName;\r\n    mapping(uint256 => Song) public songs;\r\n    address[] public userAddresses;\r\n\r\n    constructor() public {\r\n        number_of_users = 0;\r\n        number_of_songs = 0;\r\n    }\r\n\r\n    struct User {\r\n        string name;\r\n        uint256 userID;\r\n        uint256[] songsPublished;\r\n    }\r\n\r\n    struct Song {\r\n        uint256 songID;\r\n        string ipfsHash;\r\n        address owner;\r\n    }\r\n\r\n    function add_new_user(string memory _name) public {\r\n        require(allUsers[msg.sender].userID == 0, \"User already registered.\");\r\n        require(userAddressesByName[_name] == address(0), \"Username already taken.\"); // Prevent duplicate names\r\n        number_of_users += 1;\r\n        User memory newUser;\r\n        newUser.name = _name;\r\n        newUser.userID = number_of_users;\r\n        allUsers[msg.sender] = newUser;\r\n        userAddresses.push(msg.sender);\r\n        userAddressesByName[_name] = msg.sender;\r\n    }\r\n\r\n    function getuserAddresses() public view returns (address[] memory) {\r\n        return userAddresses;\r\n    }\r\n\r\n    function isUserRegistered(address user) public view returns (bool) {\r\n        return allUsers[user].userID != 0;\r\n    }\r\n\r\n    function get_user_name(address user) public view returns (string memory) {\r\n        return allUsers[user].name;\r\n    }\r\n\r\n    function getUserAddressByName(string memory _name) public view returns (address) {\r\n        address artistAddress = userAddressesByName[_name];\r\n        require(artistAddress != address(0), \"Artist not found.\");  // Ensure artist exists\r\n        return artistAddress;\r\n    }\r\n\r\n    event DonationMade(address indexed artist, address indexed donor, uint256 amount);\r\n\r\n    function donateArtist(address artistAddress) public payable {\r\n        require(msg.value > 0, \"Donation amount must be greater than zero\");\r\n        require(artistAddress != address(0), \"Invalid artist address\");\r\n\r\n        // Perform the donation logic, e.g., transferring ETH to the artist\r\n        payable(artistAddress).transfer(msg.value);\r\n\r\n        // Emit the DonationMade event with the artist's address\r\n        emit DonationMade(artistAddress, msg.sender, msg.value);\r\n    }\r\n\r\n    // Function to publish a new song\r\n    function publishSong(string memory _ipfsHash) public {\r\n        require(allUsers[msg.sender].userID != 0, \"User not registered.\"); // Ensure user is registered\r\n\r\n        // Check if the song already exists by its IPFS hash for this user\r\n        for (uint i = 0; i < allUsers[msg.sender].songsPublished.length; i++) {\r\n            uint256 songId = allUsers[msg.sender].songsPublished[i];\r\n            if (keccak256(bytes(songs[songId].ipfsHash)) == keccak256(bytes(_ipfsHash))) {\r\n                revert(\"Song already uploaded by this user.\");\r\n            }\r\n        }\r\n\r\n        // Increment song counter and create a new song\r\n        number_of_songs += 1;\r\n        songs[number_of_songs] = Song(number_of_songs, _ipfsHash, msg.sender);\r\n\r\n        // Associate the song with the user\r\n        allUsers[msg.sender].songsPublished.push(number_of_songs);\r\n    }\r\n    \r\n    // Function to get a user's songs\r\n    function getUserSongs(address user) public view returns (uint256[] memory) {\r\n        return allUsers[user].songsPublished;\r\n    }\r\n\r\n    // Function to get song details by ID\r\n    function getSong(uint256 songID) public view returns (uint256, string memory, address) {\r\n        require(songID <= number_of_songs && songID > 0, \"Song does not exist.\");\r\n        Song memory song = songs[songID];\r\n        return (song.songID, song.ipfsHash, song.owner);\r\n    }\r\n\r\n}\r\n",
  "sourcePath": "D:\\melovibz-dapp\\contracts\\Melovibz.sol",
  "compiler": {
    "name": "solc",
    "version": "0.8.13+commit.abaa5c0e.Emscripten.clang"
  },
  "schemaVersion": "3.4.16",
  "updatedAt": "2024-11-06T06:32:38.510Z",
  "networkType": "ethereum",
  "devdoc": {
    "kind": "dev",
    "methods": {},
    "version": 1
  },
  "userdoc": {
    "kind": "user",
    "methods": {},
    "version": 1
  }
}