{
  "contractName": "Melovibz",
  "abi": [
    {
      "inputs": [],
      "stateMutability": "nonpayable",
      "type": "constructor"
    },
    {
      "anonymous": false,
      "inputs": [
        {
          "indexed": true,
          "internalType": "address",
          "name": "artist",
          "type": "address"
        },
        {
          "indexed": true,
          "internalType": "address",
          "name": "donor",
          "type": "address"
        },
        {
          "indexed": false,
          "internalType": "uint256",
          "name": "amount",
          "type": "uint256"
        }
      ],
      "name": "DonationMade",
      "type": "event"
    },
    {
      "inputs": [
        {
          "internalType": "uint256",
          "name": "",
          "type": "uint256"
        }
      ],
      "name": "allSongIds",
      "outputs": [
        {
          "internalType": "uint256",
          "name": "",
          "type": "uint256"
        }
      ],
      "stateMutability": "view",
      "type": "function",
      "constant": true
    },
    {
      "inputs": [
        {
          "internalType": "address",
          "name": "",
          "type": "address"
        }
      ],
      "name": "allUsers",
      "outputs": [
        {
          "internalType": "string",
          "name": "name",
          "type": "string"
        },
        {
          "internalType": "uint256",
          "name": "userID",
          "type": "uint256"
        }
      ],
      "stateMutability": "view",
      "type": "function",
      "constant": true
    },
    {
      "inputs": [],
      "name": "number_of_songs",
      "outputs": [
        {
          "internalType": "uint256",
          "name": "",
          "type": "uint256"
        }
      ],
      "stateMutability": "view",
      "type": "function",
      "constant": true
    },
    {
      "inputs": [],
      "name": "number_of_users",
      "outputs": [
        {
          "internalType": "uint256",
          "name": "",
          "type": "uint256"
        }
      ],
      "stateMutability": "view",
      "type": "function",
      "constant": true
    },
    {
      "inputs": [
        {
          "internalType": "uint256",
          "name": "",
          "type": "uint256"
        }
      ],
      "name": "songs",
      "outputs": [
        {
          "internalType": "uint256",
          "name": "songID",
          "type": "uint256"
        },
        {
          "internalType": "string",
          "name": "ipfsHash",
          "type": "string"
        },
        {
          "internalType": "string",
          "name": "owner",
          "type": "string"
        },
        {
          "internalType": "string",
          "name": "song_name",
          "type": "string"
        }
      ],
      "stateMutability": "view",
      "type": "function",
      "constant": true
    },
    {
      "inputs": [
        {
          "internalType": "uint256",
          "name": "",
          "type": "uint256"
        }
      ],
      "name": "userAddresses",
      "outputs": [
        {
          "internalType": "address",
          "name": "",
          "type": "address"
        }
      ],
      "stateMutability": "view",
      "type": "function",
      "constant": true
    },
    {
      "inputs": [
        {
          "internalType": "string",
          "name": "",
          "type": "string"
        }
      ],
      "name": "userAddressesByName",
      "outputs": [
        {
          "internalType": "address",
          "name": "",
          "type": "address"
        }
      ],
      "stateMutability": "view",
      "type": "function",
      "constant": true
    },
    {
      "inputs": [
        {
          "internalType": "string",
          "name": "_name",
          "type": "string"
        }
      ],
      "name": "add_new_user",
      "outputs": [],
      "stateMutability": "nonpayable",
      "type": "function"
    },
    {
      "inputs": [],
      "name": "getuserAddresses",
      "outputs": [
        {
          "internalType": "address[]",
          "name": "",
          "type": "address[]"
        }
      ],
      "stateMutability": "view",
      "type": "function",
      "constant": true
    },
    {
      "inputs": [
        {
          "internalType": "address",
          "name": "user",
          "type": "address"
        }
      ],
      "name": "isUserRegistered",
      "outputs": [
        {
          "internalType": "bool",
          "name": "",
          "type": "bool"
        }
      ],
      "stateMutability": "view",
      "type": "function",
      "constant": true
    },
    {
      "inputs": [
        {
          "internalType": "address",
          "name": "user",
          "type": "address"
        }
      ],
      "name": "get_user_name",
      "outputs": [
        {
          "internalType": "string",
          "name": "",
          "type": "string"
        }
      ],
      "stateMutability": "view",
      "type": "function",
      "constant": true
    },
    {
      "inputs": [
        {
          "internalType": "string",
          "name": "_name",
          "type": "string"
        }
      ],
      "name": "getUserAddressByName",
      "outputs": [
        {
          "internalType": "address",
          "name": "",
          "type": "address"
        }
      ],
      "stateMutability": "view",
      "type": "function",
      "constant": true
    },
    {
      "inputs": [
        {
          "internalType": "address",
          "name": "artistAddress",
          "type": "address"
        }
      ],
      "name": "donateArtist",
      "outputs": [],
      "stateMutability": "payable",
      "type": "function",
      "payable": true
    },
    {
      "inputs": [
        {
          "internalType": "string",
          "name": "song_name",
          "type": "string"
        },
        {
          "internalType": "string",
          "name": "_ipfsHash",
          "type": "string"
        }
      ],
      "name": "publishSong",
      "outputs": [],
      "stateMutability": "nonpayable",
      "type": "function"
    },
    {
      "inputs": [],
      "name": "getAllSongs",
      "outputs": [
        {
          "components": [
            {
              "internalType": "uint256",
              "name": "songID",
              "type": "uint256"
            },
            {
              "internalType": "string",
              "name": "ipfsHash",
              "type": "string"
            },
            {
              "internalType": "string",
              "name": "owner",
              "type": "string"
            },
            {
              "internalType": "string",
              "name": "song_name",
              "type": "string"
            }
          ],
          "internalType": "struct Melovibz.Song[]",
          "name": "",
          "type": "tuple[]"
        }
      ],
      "stateMutability": "view",
      "type": "function",
      "constant": true
    }
  ],
  "bytecode": "0x608060405234801561001057600080fd5b506000808190555060006001819055506121d08061002f6000396000f3fe6080604052600436106100e85760003560e01c8063304cff301161008a578063c8751aaa11610059578063c8751aaa14610312578063d5b978931461034f578063eae4b0e714610378578063edbece37146103b5576100e8565b8063304cff30146102505780634c6482bd14610290578063502c9bd5146102b9578063b699a7bb146102f6576100e8565b806322821132116100c6578063228211321461019257806329ef6862146101bd5780632a993fa6146101e85780632b9575aa14610213576100e8565b806307e084eb146100ed5780630989777f1461012a578063163f752214610155575b600080fd5b3480156100f957600080fd5b50610114600480360381019061010f91906115fa565b6103f3565b6040516101219190611684565b60405180910390f35b34801561013657600080fd5b5061013f6104af565b60405161014c919061175d565b60405180910390f35b34801561016157600080fd5b5061017c600480360381019061017791906117ab565b61053d565b60405161018991906117f3565b60405180910390f35b34801561019e57600080fd5b506101a761058c565b6040516101b49190611827565b60405180910390f35b3480156101c957600080fd5b506101d2610592565b6040516101df9190611a0c565b60405180910390f35b3480156101f457600080fd5b506101fd61083c565b60405161020a9190611827565b60405180910390f35b34801561021f57600080fd5b5061023a600480360381019061023591906117ab565b610842565b6040516102479190611a78565b60405180910390f35b34801561025c57600080fd5b5061027760048036038101906102729190611ac6565b610916565b6040516102879493929190611af3565b60405180910390f35b34801561029c57600080fd5b506102b760048036038101906102b29190611b4d565b610ade565b005b3480156102c557600080fd5b506102e060048036038101906102db9190611ac6565b610dfb565b6040516102ed9190611684565b60405180910390f35b610310600480360381019061030b91906117ab565b610e3a565b005b34801561031e57600080fd5b5061033960048036038101906103349190611ac6565b610f9b565b6040516103469190611827565b60405180910390f35b34801561035b57600080fd5b50610376600480360381019061037191906115fa565b610fbf565b005b34801561038457600080fd5b5061039f600480360381019061039a91906115fa565b611272565b6040516103ac9190611684565b60405180910390f35b3480156103c157600080fd5b506103dc60048036038101906103d791906117ab565b6112bb565b6040516103ea929190611bc5565b60405180910390f35b6000806003836040516104069190611c31565b908152602001604051809103902060009054906101000a900473ffffffffffffffffffffffffffffffffffffffff169050600073ffffffffffffffffffffffffffffffffffffffff168173ffffffffffffffffffffffffffffffffffffffff16036104a6576040517f08c379a000000000000000000000000000000000000000000000000000000000815260040161049d90611c94565b60405180910390fd5b80915050919050565b6060600580548060200260200160405190810160405280929190818152602001828054801561053357602002820191906000526020600020905b8160009054906101000a900473ffffffffffffffffffffffffffffffffffffffff1673ffffffffffffffffffffffffffffffffffffffff16815260200190600101908083116104e9575b5050505050905090565b600080600260008473ffffffffffffffffffffffffffffffffffffffff1673ffffffffffffffffffffffffffffffffffffffff1681526020019081526020016000206001015414159050919050565b60005481565b6060600060068054905067ffffffffffffffff8111156105b5576105b46114cf565b5b6040519080825280602002602001820160405280156105ee57816020015b6105db611367565b8152602001906001900390816105d35790505b50905060005b6006805490508110156108345760006006828154811061061757610616611cb4565b5b90600052602060002001549050600460008281526020019081526020016000206040518060800160405290816000820154815260200160018201805461065c90611d12565b80601f016020809104026020016040519081016040528092919081815260200182805461068890611d12565b80156106d55780601f106106aa576101008083540402835291602001916106d5565b820191906000526020600020905b8154815290600101906020018083116106b857829003601f168201915b505050505081526020016002820180546106ee90611d12565b80601f016020809104026020016040519081016040528092919081815260200182805461071a90611d12565b80156107675780601f1061073c57610100808354040283529160200191610767565b820191906000526020600020905b81548152906001019060200180831161074a57829003601f168201915b5050505050815260200160038201805461078090611d12565b80601f01602080910402602001604051908101604052809291908181526020018280546107ac90611d12565b80156107f95780601f106107ce576101008083540402835291602001916107f9565b820191906000526020600020905b8154815290600101906020018083116107dc57829003601f168201915b50505050508152505083838151811061081557610814611cb4565b5b602002602001018190525050808061082c90611d72565b9150506105f4565b508091505090565b60015481565b6060600260008373ffffffffffffffffffffffffffffffffffffffff1673ffffffffffffffffffffffffffffffffffffffff168152602001908152602001600020600001805461089190611d12565b80601f01602080910402602001604051908101604052809291908181526020018280546108bd90611d12565b801561090a5780601f106108df5761010080835404028352916020019161090a565b820191906000526020600020905b8154815290600101906020018083116108ed57829003601f168201915b50505050509050919050565b600460205280600052604060002060009150905080600001549080600101805461093f90611d12565b80601f016020809104026020016040519081016040528092919081815260200182805461096b90611d12565b80156109b85780601f1061098d576101008083540402835291602001916109b8565b820191906000526020600020905b81548152906001019060200180831161099b57829003601f168201915b5050505050908060020180546109cd90611d12565b80601f01602080910402602001604051908101604052809291908181526020018280546109f990611d12565b8015610a465780601f10610a1b57610100808354040283529160200191610a46565b820191906000526020600020905b815481529060010190602001808311610a2957829003601f168201915b505050505090806003018054610a5b90611d12565b80601f0160208091040260200160405190810160405280929190818152602001828054610a8790611d12565b8015610ad45780601f10610aa957610100808354040283529160200191610ad4565b820191906000526020600020905b815481529060010190602001808311610ab757829003601f168201915b5050505050905084565b6000600260003373ffffffffffffffffffffffffffffffffffffffff1673ffffffffffffffffffffffffffffffffffffffff1681526020019081526020016000206001015403610b63576040517f08c379a0000000000000000000000000000000000000000000000000000000008152600401610b5a90611e06565b60405180910390fd5b60005b600260003373ffffffffffffffffffffffffffffffffffffffff1673ffffffffffffffffffffffffffffffffffffffff16815260200190815260200160002060020180549050811015610c9d576000600260003373ffffffffffffffffffffffffffffffffffffffff1673ffffffffffffffffffffffffffffffffffffffff1681526020019081526020016000206002018281548110610c0957610c08611cb4565b5b90600052602060002001549050828051906020012060046000838152602001908152602001600020600101604051610c419190611ec5565b604051809103902003610c89576040517f08c379a0000000000000000000000000000000000000000000000000000000008152600401610c8090611f4e565b60405180910390fd5b508080610c9590611d72565b915050610b66565b506001806000828254610cb09190611f6e565b925050819055506000610cc233610842565b90506040518060800160405280600154815260200183815260200182815260200184815250600460006001548152602001908152602001600020600082015181600001556020820151816001019080519060200190610d2292919061138f565b506040820151816002019080519060200190610d3f92919061138f565b506060820151816003019080519060200190610d5c92919061138f565b5090505060066001549080600181540180825580915050600190039060005260206000200160009091909190915055600260003373ffffffffffffffffffffffffffffffffffffffff1673ffffffffffffffffffffffffffffffffffffffff1681526020019081526020016000206002016001549080600181540180825580915050600190039060005260206000200160009091909190915055505050565b60058181548110610e0b57600080fd5b906000526020600020016000915054906101000a900473ffffffffffffffffffffffffffffffffffffffff1681565b60003411610e7d576040517f08c379a0000000000000000000000000000000000000000000000000000000008152600401610e7490612036565b60405180910390fd5b600073ffffffffffffffffffffffffffffffffffffffff168173ffffffffffffffffffffffffffffffffffffffff1603610eec576040517f08c379a0000000000000000000000000000000000000000000000000000000008152600401610ee3906120a2565b60405180910390fd5b8073ffffffffffffffffffffffffffffffffffffffff166108fc349081150290604051600060405180830381858888f19350505050158015610f32573d6000803e3d6000fd5b503373ffffffffffffffffffffffffffffffffffffffff168173ffffffffffffffffffffffffffffffffffffffff167f70c6bc6cf53707fb5561feef795d557f7e46f57bd4f1a13ce36e9ffdf58d38bb34604051610f909190611827565b60405180910390a350565b60068181548110610fab57600080fd5b906000526020600020016000915090505481565b6000600260003373ffffffffffffffffffffffffffffffffffffffff1673ffffffffffffffffffffffffffffffffffffffff1681526020019081526020016000206001015414611044576040517f08c379a000000000000000000000000000000000000000000000000000000000815260040161103b9061210e565b60405180910390fd5b600073ffffffffffffffffffffffffffffffffffffffff1660038260405161106c9190611c31565b908152602001604051809103902060009054906101000a900473ffffffffffffffffffffffffffffffffffffffff1673ffffffffffffffffffffffffffffffffffffffff16146110f1576040517f08c379a00000000000000000000000000000000000000000000000000000000081526004016110e89061217a565b60405180910390fd5b60016000808282546111039190611f6e565b92505081905550611112611415565b81816000018190525060005481602001818152505080600260003373ffffffffffffffffffffffffffffffffffffffff1673ffffffffffffffffffffffffffffffffffffffff168152602001908152602001600020600082015181600001908051906020019061118392919061138f565b506020820151816001015560408201518160020190805190602001906111aa929190611436565b509050506005339080600181540180825580915050600190039060005260206000200160009091909190916101000a81548173ffffffffffffffffffffffffffffffffffffffff021916908373ffffffffffffffffffffffffffffffffffffffff160217905550336003836040516112229190611c31565b908152602001604051809103902060006101000a81548173ffffffffffffffffffffffffffffffffffffffff021916908373ffffffffffffffffffffffffffffffffffffffff1602179055505050565b6003818051602081018201805184825260208301602085012081835280955050505050506000915054906101000a900473ffffffffffffffffffffffffffffffffffffffff1681565b60026020528060005260406000206000915090508060000180546112de90611d12565b80601f016020809104026020016040519081016040528092919081815260200182805461130a90611d12565b80156113575780601f1061132c57610100808354040283529160200191611357565b820191906000526020600020905b81548152906001019060200180831161133a57829003601f168201915b5050505050908060010154905082565b6040518060800160405280600081526020016060815260200160608152602001606081525090565b82805461139b90611d12565b90600052602060002090601f0160209004810192826113bd5760008555611404565b82601f106113d657805160ff1916838001178555611404565b82800160010185558215611404579182015b828111156114035782518255916020019190600101906113e8565b5b5090506114119190611483565b5090565b60405180606001604052806060815260200160008152602001606081525090565b828054828255906000526020600020908101928215611472579160200282015b82811115611471578251825591602001919060010190611456565b5b50905061147f9190611483565b5090565b5b8082111561149c576000816000905550600101611484565b5090565b6000604051905090565b600080fd5b600080fd5b600080fd5b600080fd5b6000601f19601f8301169050919050565b7f4e487b7100000000000000000000000000000000000000000000000000000000600052604160045260246000fd5b611507826114be565b810181811067ffffffffffffffff82111715611526576115256114cf565b5b80604052505050565b60006115396114a0565b905061154582826114fe565b919050565b600067ffffffffffffffff821115611565576115646114cf565b5b61156e826114be565b9050602081019050919050565b82818337600083830152505050565b600061159d6115988461154a565b61152f565b9050828152602081018484840111156115b9576115b86114b9565b5b6115c484828561157b565b509392505050565b600082601f8301126115e1576115e06114b4565b5b81356115f184826020860161158a565b91505092915050565b6000602082840312156116105761160f6114aa565b5b600082013567ffffffffffffffff81111561162e5761162d6114af565b5b61163a848285016115cc565b91505092915050565b600073ffffffffffffffffffffffffffffffffffffffff82169050919050565b600061166e82611643565b9050919050565b61167e81611663565b82525050565b60006020820190506116996000830184611675565b92915050565b600081519050919050565b600082825260208201905092915050565b6000819050602082019050919050565b6116d481611663565b82525050565b60006116e683836116cb565b60208301905092915050565b6000602082019050919050565b600061170a8261169f565b61171481856116aa565b935061171f836116bb565b8060005b8381101561175057815161173788826116da565b9750611742836116f2565b925050600181019050611723565b5085935050505092915050565b6000602082019050818103600083015261177781846116ff565b905092915050565b61178881611663565b811461179357600080fd5b50565b6000813590506117a58161177f565b92915050565b6000602082840312156117c1576117c06114aa565b5b60006117cf84828501611796565b91505092915050565b60008115159050919050565b6117ed816117d8565b82525050565b600060208201905061180860008301846117e4565b92915050565b6000819050919050565b6118218161180e565b82525050565b600060208201905061183c6000830184611818565b92915050565b600081519050919050565b600082825260208201905092915050565b6000819050602082019050919050565b6118778161180e565b82525050565b600081519050919050565b600082825260208201905092915050565b60005b838110156118b757808201518184015260208101905061189c565b838111156118c6576000848401525b50505050565b60006118d78261187d565b6118e18185611888565b93506118f1818560208601611899565b6118fa816114be565b840191505092915050565b600060808301600083015161191d600086018261186e565b506020830151848203602086015261193582826118cc565b9150506040830151848203604086015261194f82826118cc565b9150506060830151848203606086015261196982826118cc565b9150508091505092915050565b60006119828383611905565b905092915050565b6000602082019050919050565b60006119a282611842565b6119ac818561184d565b9350836020820285016119be8561185e565b8060005b858110156119fa57848403895281516119db8582611976565b94506119e68361198a565b925060208a019950506001810190506119c2565b50829750879550505050505092915050565b60006020820190508181036000830152611a268184611997565b905092915050565b600082825260208201905092915050565b6000611a4a8261187d565b611a548185611a2e565b9350611a64818560208601611899565b611a6d816114be565b840191505092915050565b60006020820190508181036000830152611a928184611a3f565b905092915050565b611aa38161180e565b8114611aae57600080fd5b50565b600081359050611ac081611a9a565b92915050565b600060208284031215611adc57611adb6114aa565b5b6000611aea84828501611ab1565b91505092915050565b6000608082019050611b086000830187611818565b8181036020830152611b1a8186611a3f565b90508181036040830152611b2e8185611a3f565b90508181036060830152611b428184611a3f565b905095945050505050565b60008060408385031215611b6457611b636114aa565b5b600083013567ffffffffffffffff811115611b8257611b816114af565b5b611b8e858286016115cc565b925050602083013567ffffffffffffffff811115611baf57611bae6114af565b5b611bbb858286016115cc565b9150509250929050565b60006040820190508181036000830152611bdf8185611a3f565b9050611bee6020830184611818565b9392505050565b600081905092915050565b6000611c0b8261187d565b611c158185611bf5565b9350611c25818560208601611899565b80840191505092915050565b6000611c3d8284611c00565b915081905092915050565b7f417274697374206e6f7420666f756e642e000000000000000000000000000000600082015250565b6000611c7e601183611a2e565b9150611c8982611c48565b602082019050919050565b60006020820190508181036000830152611cad81611c71565b9050919050565b7f4e487b7100000000000000000000000000000000000000000000000000000000600052603260045260246000fd5b7f4e487b7100000000000000000000000000000000000000000000000000000000600052602260045260246000fd5b60006002820490506001821680611d2a57607f821691505b602082108103611d3d57611d3c611ce3565b5b50919050565b7f4e487b7100000000000000000000000000000000000000000000000000000000600052601160045260246000fd5b6000611d7d8261180e565b91507fffffffffffffffffffffffffffffffffffffffffffffffffffffffffffffffff8203611daf57611dae611d43565b5b600182019050919050565b7f55736572206e6f7420726567697374657265642e000000000000000000000000600082015250565b6000611df0601483611a2e565b9150611dfb82611dba565b602082019050919050565b60006020820190508181036000830152611e1f81611de3565b9050919050565b600081905092915050565b60008190508160005260206000209050919050565b60008154611e5381611d12565b611e5d8186611e26565b94506001821660008114611e785760018114611e8957611ebc565b60ff19831686528186019350611ebc565b611e9285611e31565b60005b83811015611eb457815481890152600182019150602081019050611e95565b838801955050505b50505092915050565b6000611ed18284611e46565b915081905092915050565b7f536f6e6720616c72656164792075706c6f61646564206279207468697320757360008201527f65722e0000000000000000000000000000000000000000000000000000000000602082015250565b6000611f38602383611a2e565b9150611f4382611edc565b604082019050919050565b60006020820190508181036000830152611f6781611f2b565b9050919050565b6000611f798261180e565b9150611f848361180e565b9250827fffffffffffffffffffffffffffffffffffffffffffffffffffffffffffffffff03821115611fb957611fb8611d43565b5b828201905092915050565b7f446f6e6174696f6e20616d6f756e74206d75737420626520677265617465722060008201527f7468616e207a65726f0000000000000000000000000000000000000000000000602082015250565b6000612020602983611a2e565b915061202b82611fc4565b604082019050919050565b6000602082019050818103600083015261204f81612013565b9050919050565b7f496e76616c696420617274697374206164647265737300000000000000000000600082015250565b600061208c601683611a2e565b915061209782612056565b602082019050919050565b600060208201905081810360008301526120bb8161207f565b9050919050565b7f5573657220616c726561647920726567697374657265642e0000000000000000600082015250565b60006120f8601883611a2e565b9150612103826120c2565b602082019050919050565b60006020820190508181036000830152612127816120eb565b9050919050565b7f557365726e616d6520616c72656164792074616b656e2e000000000000000000600082015250565b6000612164601783611a2e565b915061216f8261212e565b602082019050919050565b6000602082019050818103600083015261219381612157565b905091905056fea2646970667358221220ad69e824b6e9c83de29f8a32e95c19dae249d7a216fefbe639d26860f12d2cfc64736f6c634300080d0033",
  "immutableReferences": {},
  "source": "pragma solidity >=0.4.22 <0.9.0;\r\n\r\ncontract Melovibz {\r\n\r\n    uint256 public number_of_users;\r\n    uint256 public number_of_songs;\r\n\r\n    mapping(address => User) public allUsers;\r\n    mapping(string => address) public userAddressesByName;\r\n    mapping(uint256 => Song) public songs;\r\n    address[] public userAddresses;\r\n    uint256[] public allSongIds; // Array to store all song IDs\r\n\r\n    constructor() public {\r\n        number_of_users = 0;\r\n        number_of_songs = 0;\r\n    }\r\n\r\n    struct User {\r\n        string name;\r\n        uint256 userID;\r\n        uint256[] songsPublished;\r\n    }\r\n\r\n    struct Song {\r\n        uint256 songID;\r\n\r\n        string ipfsHash;\r\n        string owner;\r\n        string song_name;\r\n    }\r\n\r\n    function add_new_user(string memory _name) public {\r\n        require(allUsers[msg.sender].userID == 0, \"User already registered.\");\r\n        require(userAddressesByName[_name] == address(0), \"Username already taken.\"); // Prevent duplicate names\r\n        number_of_users += 1;\r\n        User memory newUser;\r\n        newUser.name = _name;\r\n        newUser.userID = number_of_users;\r\n        allUsers[msg.sender] = newUser;\r\n        userAddresses.push(msg.sender);\r\n        userAddressesByName[_name] = msg.sender;\r\n    }\r\n\r\n    function getuserAddresses() public view returns (address[] memory) {\r\n        return userAddresses;\r\n    }\r\n\r\n    function isUserRegistered(address user) public view returns (bool) {\r\n        return allUsers[user].userID != 0;\r\n    }\r\n\r\n    function get_user_name(address user) public view returns (string memory) {\r\n        return allUsers[user].name;\r\n    }\r\n\r\n    function getUserAddressByName(string memory _name) public view returns (address) {\r\n        address artistAddress = userAddressesByName[_name];\r\n        require(artistAddress != address(0), \"Artist not found.\");  // Ensure artist exists\r\n        return artistAddress;\r\n    }\r\n\r\n    event DonationMade(address indexed artist, address indexed donor, uint256 amount);\r\n\r\n    function donateArtist(address artistAddress) public payable {\r\n        require(msg.value > 0, \"Donation amount must be greater than zero\");\r\n        require(artistAddress != address(0), \"Invalid artist address\");\r\n\r\n        // Perform the donation logic, e.g., transferring ETH to the artist\r\n        payable(artistAddress).transfer(msg.value);\r\n\r\n        // Emit the DonationMade event with the artist's address\r\n        emit DonationMade(artistAddress, msg.sender, msg.value);\r\n    }\r\n\r\n    function publishSong(string memory song_name,string memory _ipfsHash) public {\r\n        require(allUsers[msg.sender].userID != 0, \"User not registered.\"); // Ensure user is registered\r\n\r\n        for (uint i = 0; i < allUsers[msg.sender].songsPublished.length; i++) {\r\n            uint256 songId = allUsers[msg.sender].songsPublished[i];\r\n            if (keccak256(bytes(songs[songId].ipfsHash)) == keccak256(bytes(_ipfsHash))) {\r\n                revert(\"Song already uploaded by this user.\");\r\n            }\r\n        }\r\n\r\n        number_of_songs += 1;\r\n        string memory name = get_user_name(msg.sender);\r\n        songs[number_of_songs] = Song(number_of_songs, _ipfsHash,name,song_name);\r\n        allSongIds.push(number_of_songs);\r\n\r\n        // Associate the song with the user\r\n        allUsers[msg.sender].songsPublished.push(number_of_songs);\r\n    }\r\n\r\n    function getAllSongs() public view returns (Song[] memory) {\r\n        Song[] memory allSongs = new Song[](allSongIds.length);\r\n\r\n        for (uint256 i = 0; i < allSongIds.length; i++) {\r\n            uint256 songId = allSongIds[i];\r\n            allSongs[i] = songs[songId]; // Retrieve the Song object using the songId\r\n        }\r\n\r\n        return allSongs;\r\n    }\r\n\r\n}\r\n",
  "sourcePath": "D:\\Blockchain\\melovibz-dapp\\contracts\\Melovibz.sol",
  "compiler": {
    "name": "solc",
    "version": "0.8.13+commit.abaa5c0e.Emscripten.clang"
  },
  "schemaVersion": "3.4.16",
  "updatedAt": "2024-11-06T08:36:06.501Z",
  "networkType": "ethereum",
  "devdoc": {
    "kind": "dev",
    "methods": {},
    "version": 1
  },
  "userdoc": {
    "kind": "user",
    "methods": {},
    "version": 1
  }
}