{
  "contractName": "Melovibz",
  "abi": [
    {
      "inputs": [],
      "stateMutability": "nonpayable",
      "type": "constructor"
    },
    {
      "anonymous": false,
      "inputs": [
        {
          "indexed": true,
          "internalType": "address",
          "name": "artist",
          "type": "address"
        },
        {
          "indexed": true,
          "internalType": "address",
          "name": "donor",
          "type": "address"
        },
        {
          "indexed": false,
          "internalType": "uint256",
          "name": "amount",
          "type": "uint256"
        }
      ],
      "name": "DonationMade",
      "type": "event"
    },
    {
      "anonymous": false,
      "inputs": [
        {
          "indexed": true,
          "internalType": "address",
          "name": "buyer",
          "type": "address"
        },
        {
          "indexed": false,
          "internalType": "uint256",
          "name": "songID",
          "type": "uint256"
        },
        {
          "indexed": false,
          "internalType": "uint256",
          "name": "price",
          "type": "uint256"
        }
      ],
      "name": "SongPurchased",
      "type": "event"
    },
    {
      "inputs": [
        {
          "internalType": "uint256",
          "name": "",
          "type": "uint256"
        }
      ],
      "name": "allSongIds",
      "outputs": [
        {
          "internalType": "uint256",
          "name": "",
          "type": "uint256"
        }
      ],
      "stateMutability": "view",
      "type": "function",
      "constant": true
    },
    {
      "inputs": [
        {
          "internalType": "address",
          "name": "",
          "type": "address"
        }
      ],
      "name": "allUsers",
      "outputs": [
        {
          "internalType": "string",
          "name": "name",
          "type": "string"
        },
        {
          "internalType": "uint256",
          "name": "userID",
          "type": "uint256"
        }
      ],
      "stateMutability": "view",
      "type": "function",
      "constant": true
    },
    {
      "inputs": [],
      "name": "listenThreshold",
      "outputs": [
        {
          "internalType": "uint256",
          "name": "",
          "type": "uint256"
        }
      ],
      "stateMutability": "view",
      "type": "function",
      "constant": true
    },
    {
      "inputs": [],
      "name": "number_of_songs",
      "outputs": [
        {
          "internalType": "uint256",
          "name": "",
          "type": "uint256"
        }
      ],
      "stateMutability": "view",
      "type": "function",
      "constant": true
    },
    {
      "inputs": [],
      "name": "number_of_users",
      "outputs": [
        {
          "internalType": "uint256",
          "name": "",
          "type": "uint256"
        }
      ],
      "stateMutability": "view",
      "type": "function",
      "constant": true
    },
    {
      "inputs": [
        {
          "internalType": "uint256",
          "name": "",
          "type": "uint256"
        },
        {
          "internalType": "address",
          "name": "",
          "type": "address"
        }
      ],
      "name": "songListenCountByUser",
      "outputs": [
        {
          "internalType": "uint256",
          "name": "",
          "type": "uint256"
        }
      ],
      "stateMutability": "view",
      "type": "function",
      "constant": true
    },
    {
      "inputs": [
        {
          "internalType": "uint256",
          "name": "",
          "type": "uint256"
        },
        {
          "internalType": "address",
          "name": "",
          "type": "address"
        }
      ],
      "name": "songPurchasedByUser",
      "outputs": [
        {
          "internalType": "bool",
          "name": "",
          "type": "bool"
        }
      ],
      "stateMutability": "view",
      "type": "function",
      "constant": true
    },
    {
      "inputs": [
        {
          "internalType": "uint256",
          "name": "",
          "type": "uint256"
        }
      ],
      "name": "songs",
      "outputs": [
        {
          "internalType": "uint256",
          "name": "songID",
          "type": "uint256"
        },
        {
          "internalType": "string",
          "name": "ipfsHash",
          "type": "string"
        },
        {
          "internalType": "string",
          "name": "owner",
          "type": "string"
        },
        {
          "internalType": "string",
          "name": "song_name",
          "type": "string"
        },
        {
          "internalType": "uint256",
          "name": "price",
          "type": "uint256"
        }
      ],
      "stateMutability": "view",
      "type": "function",
      "constant": true
    },
    {
      "inputs": [
        {
          "internalType": "uint256",
          "name": "",
          "type": "uint256"
        }
      ],
      "name": "userAddresses",
      "outputs": [
        {
          "internalType": "address",
          "name": "",
          "type": "address"
        }
      ],
      "stateMutability": "view",
      "type": "function",
      "constant": true
    },
    {
      "inputs": [
        {
          "internalType": "string",
          "name": "",
          "type": "string"
        }
      ],
      "name": "userAddressesByName",
      "outputs": [
        {
          "internalType": "address",
          "name": "",
          "type": "address"
        }
      ],
      "stateMutability": "view",
      "type": "function",
      "constant": true
    },
    {
      "inputs": [
        {
          "internalType": "string",
          "name": "_name",
          "type": "string"
        }
      ],
      "name": "add_new_user",
      "outputs": [],
      "stateMutability": "nonpayable",
      "type": "function"
    },
    {
      "inputs": [],
      "name": "getuserAddresses",
      "outputs": [
        {
          "internalType": "address[]",
          "name": "",
          "type": "address[]"
        }
      ],
      "stateMutability": "view",
      "type": "function",
      "constant": true
    },
    {
      "inputs": [
        {
          "internalType": "address",
          "name": "user",
          "type": "address"
        }
      ],
      "name": "isUserRegistered",
      "outputs": [
        {
          "internalType": "bool",
          "name": "",
          "type": "bool"
        }
      ],
      "stateMutability": "view",
      "type": "function",
      "constant": true
    },
    {
      "inputs": [
        {
          "internalType": "address",
          "name": "user",
          "type": "address"
        }
      ],
      "name": "get_user_name",
      "outputs": [
        {
          "internalType": "string",
          "name": "",
          "type": "string"
        }
      ],
      "stateMutability": "view",
      "type": "function",
      "constant": true
    },
    {
      "inputs": [
        {
          "internalType": "string",
          "name": "_name",
          "type": "string"
        }
      ],
      "name": "getUserAddressByName",
      "outputs": [
        {
          "internalType": "address",
          "name": "",
          "type": "address"
        }
      ],
      "stateMutability": "view",
      "type": "function",
      "constant": true
    },
    {
      "inputs": [
        {
          "internalType": "address",
          "name": "artistAddress",
          "type": "address"
        }
      ],
      "name": "donateArtist",
      "outputs": [],
      "stateMutability": "payable",
      "type": "function",
      "payable": true
    },
    {
      "inputs": [
        {
          "internalType": "string",
          "name": "song_name",
          "type": "string"
        },
        {
          "internalType": "uint256",
          "name": "price",
          "type": "uint256"
        },
        {
          "internalType": "string",
          "name": "_ipfsHash",
          "type": "string"
        }
      ],
      "name": "publishSong",
      "outputs": [],
      "stateMutability": "nonpayable",
      "type": "function"
    },
    {
      "inputs": [],
      "name": "getAllSongs",
      "outputs": [
        {
          "components": [
            {
              "internalType": "uint256",
              "name": "songID",
              "type": "uint256"
            },
            {
              "internalType": "string",
              "name": "ipfsHash",
              "type": "string"
            },
            {
              "internalType": "string",
              "name": "owner",
              "type": "string"
            },
            {
              "internalType": "string",
              "name": "song_name",
              "type": "string"
            },
            {
              "internalType": "uint256",
              "name": "price",
              "type": "uint256"
            }
          ],
          "internalType": "struct Melovibz.Song[]",
          "name": "",
          "type": "tuple[]"
        }
      ],
      "stateMutability": "view",
      "type": "function",
      "constant": true
    },
    {
      "inputs": [
        {
          "internalType": "uint256",
          "name": "songID",
          "type": "uint256"
        },
        {
          "internalType": "string",
          "name": "currentUser",
          "type": "string"
        }
      ],
      "name": "isCurrentUserOwner",
      "outputs": [
        {
          "internalType": "bool",
          "name": "",
          "type": "bool"
        }
      ],
      "stateMutability": "view",
      "type": "function",
      "constant": true
    },
    {
      "inputs": [
        {
          "internalType": "uint256",
          "name": "songID",
          "type": "uint256"
        }
      ],
      "name": "listenToSong",
      "outputs": [],
      "stateMutability": "nonpayable",
      "type": "function"
    },
    {
      "inputs": [
        {
          "internalType": "uint256",
          "name": "songID",
          "type": "uint256"
        }
      ],
      "name": "purchaseSong",
      "outputs": [],
      "stateMutability": "payable",
      "type": "function",
      "payable": true
    }
  ],
  "bytecode": "0x60806040526002805534801561001457600080fd5b50600080819055506000600181905550612eb4806100336000396000f3fe60806040526004361061012a5760003560e01c80634676e131116100ab578063994935e81161006f578063994935e814610423578063b699a7bb14610460578063c8751aaa1461047c578063d5b97893146104b9578063eae4b0e7146104e2578063edbece371461051f5761012a565b80634676e13114610339578063502c9bd5146103625780636e5f6e951461039f5780637b3e4ce0146103ca578063821d884a146103e65761012a565b806329ef6862116100f257806329ef6862146102285780632a993fa6146102535780632b9575aa1461027e578063304cff30146102bb5780633348cb9d146102fc5761012a565b806307e084eb1461012f5780630989777f1461016c578063163f75221461019757806322821132146101d457806328e3a22a146101ff575b600080fd5b34801561013b57600080fd5b5061015660048036038101906101519190611ef2565b61055d565b6040516101639190611f7c565b60405180910390f35b34801561017857600080fd5b50610181610619565b60405161018e9190612055565b60405180910390f35b3480156101a357600080fd5b506101be60048036038101906101b991906120a3565b6106a7565b6040516101cb91906120eb565b60405180910390f35b3480156101e057600080fd5b506101e96106f6565b6040516101f6919061211f565b60405180910390f35b34801561020b57600080fd5b5061022660048036038101906102219190612166565b6106fc565b005b34801561023457600080fd5b5061023d6108dd565b60405161024a9190612370565b60405180910390f35b34801561025f57600080fd5b50610268610b91565b604051610275919061211f565b60405180910390f35b34801561028a57600080fd5b506102a560048036038101906102a091906120a3565b610b97565b6040516102b291906123dc565b60405180910390f35b3480156102c757600080fd5b506102e260048036038101906102dd9190612166565b610c6b565b6040516102f39594939291906123fe565b60405180910390f35b34801561030857600080fd5b50610323600480360381019061031e9190612466565b610e39565b60405161033091906120eb565b60405180910390f35b34801561034557600080fd5b50610360600480360381019061035b91906124c2565b61103d565b005b34801561036e57600080fd5b5061038960048036038101906103849190612166565b61136b565b6040516103969190611f7c565b60405180910390f35b3480156103ab57600080fd5b506103b46113aa565b6040516103c1919061211f565b60405180910390f35b6103e460048036038101906103df9190612166565b6113b0565b005b3480156103f257600080fd5b5061040d6004803603810190610408919061254d565b61167e565b60405161041a91906120eb565b60405180910390f35b34801561042f57600080fd5b5061044a6004803603810190610445919061254d565b6116ad565b604051610457919061211f565b60405180910390f35b61047a600480360381019061047591906120a3565b6116d2565b005b34801561048857600080fd5b506104a3600480360381019061049e9190612166565b611833565b6040516104b0919061211f565b60405180910390f35b3480156104c557600080fd5b506104e060048036038101906104db9190611ef2565b611857565b005b3480156104ee57600080fd5b5061050960048036038101906105049190611ef2565b611b0a565b6040516105169190611f7c565b60405180910390f35b34801561052b57600080fd5b50610546600480360381019061054191906120a3565b611b53565b60405161055492919061258d565b60405180910390f35b60008060048360405161057091906125f9565b908152602001604051809103902060009054906101000a900473ffffffffffffffffffffffffffffffffffffffff169050600073ffffffffffffffffffffffffffffffffffffffff168173ffffffffffffffffffffffffffffffffffffffff1603610610576040517f08c379a00000000000000000000000000000000000000000000000000000000081526004016106079061265c565b60405180910390fd5b80915050919050565b6060600880548060200260200160405190810160405280929190818152602001828054801561069d57602002820191906000526020600020905b8160009054906101000a900473ffffffffffffffffffffffffffffffffffffffff1673ffffffffffffffffffffffffffffffffffffffff1681526020019060010190808311610653575b5050505050905090565b600080600360008473ffffffffffffffffffffffffffffffffffffffff1673ffffffffffffffffffffffffffffffffffffffff1681526020019081526020016000206001015414159050919050565b60005481565b6000600560008381526020019081526020016000206000015403610755576040517f08c379a000000000000000000000000000000000000000000000000000000000815260040161074c906126c8565b60405180910390fd5b60016006600083815260200190815260200160002060003373ffffffffffffffffffffffffffffffffffffffff1673ffffffffffffffffffffffffffffffffffffffff16815260200190815260200160002060008282546107b69190612717565b9250508190555060006107c833610b97565b90506002546006600084815260200190815260200160002060003373ffffffffffffffffffffffffffffffffffffffff1673ffffffffffffffffffffffffffffffffffffffff1681526020019081526020016000205411801561083257506108308282610e39565b155b801561089957506007600083815260200190815260200160002060003373ffffffffffffffffffffffffffffffffffffffff1673ffffffffffffffffffffffffffffffffffffffff16815260200190815260200160002060009054906101000a900460ff16155b156108d9576040517f08c379a00000000000000000000000000000000000000000000000000000000081526004016108d090612805565b60405180910390fd5b5050565b6060600060098054905067ffffffffffffffff811115610900576108ff611dc7565b5b60405190808252806020026020018201604052801561093957816020015b610926611c58565b81526020019060019003908161091e5790505b50905060005b600980549050811015610b895760006009828154811061096257610961612825565b5b90600052602060002001549050600560008281526020019081526020016000206040518060a0016040529081600082015481526020016001820180546109a790612883565b80601f01602080910402602001604051908101604052809291908181526020018280546109d390612883565b8015610a205780601f106109f557610100808354040283529160200191610a20565b820191906000526020600020905b815481529060010190602001808311610a0357829003601f168201915b50505050508152602001600282018054610a3990612883565b80601f0160208091040260200160405190810160405280929190818152602001828054610a6590612883565b8015610ab25780601f10610a8757610100808354040283529160200191610ab2565b820191906000526020600020905b815481529060010190602001808311610a9557829003601f168201915b50505050508152602001600382018054610acb90612883565b80601f0160208091040260200160405190810160405280929190818152602001828054610af790612883565b8015610b445780601f10610b1957610100808354040283529160200191610b44565b820191906000526020600020905b815481529060010190602001808311610b2757829003601f168201915b50505050508152602001600482015481525050838381518110610b6a57610b69612825565b5b6020026020010181905250508080610b81906128b4565b91505061093f565b508091505090565b60015481565b6060600360008373ffffffffffffffffffffffffffffffffffffffff1673ffffffffffffffffffffffffffffffffffffffff1681526020019081526020016000206000018054610be690612883565b80601f0160208091040260200160405190810160405280929190818152602001828054610c1290612883565b8015610c5f5780601f10610c3457610100808354040283529160200191610c5f565b820191906000526020600020905b815481529060010190602001808311610c4257829003601f168201915b50505050509050919050565b6005602052806000526040600020600091509050806000015490806001018054610c9490612883565b80601f0160208091040260200160405190810160405280929190818152602001828054610cc090612883565b8015610d0d5780601f10610ce257610100808354040283529160200191610d0d565b820191906000526020600020905b815481529060010190602001808311610cf057829003601f168201915b505050505090806002018054610d2290612883565b80601f0160208091040260200160405190810160405280929190818152602001828054610d4e90612883565b8015610d9b5780601f10610d7057610100808354040283529160200191610d9b565b820191906000526020600020905b815481529060010190602001808311610d7e57829003601f168201915b505050505090806003018054610db090612883565b80601f0160208091040260200160405190810160405280929190818152602001828054610ddc90612883565b8015610e295780601f10610dfe57610100808354040283529160200191610e29565b820191906000526020600020905b815481529060010190602001808311610e0c57829003601f168201915b5050505050908060040154905085565b600080600560008581526020019081526020016000206040518060a001604052908160008201548152602001600182018054610e7490612883565b80601f0160208091040260200160405190810160405280929190818152602001828054610ea090612883565b8015610eed5780601f10610ec257610100808354040283529160200191610eed565b820191906000526020600020905b815481529060010190602001808311610ed057829003601f168201915b50505050508152602001600282018054610f0690612883565b80601f0160208091040260200160405190810160405280929190818152602001828054610f3290612883565b8015610f7f5780601f10610f5457610100808354040283529160200191610f7f565b820191906000526020600020905b815481529060010190602001808311610f6257829003601f168201915b50505050508152602001600382018054610f9890612883565b80601f0160208091040260200160405190810160405280929190818152602001828054610fc490612883565b80156110115780601f10610fe657610100808354040283529160200191611011565b820191906000526020600020905b815481529060010190602001808311610ff457829003601f168201915b505050505081526020016004820154815250509050611034816040015184611bff565b91505092915050565b6000600360003373ffffffffffffffffffffffffffffffffffffffff1673ffffffffffffffffffffffffffffffffffffffff16815260200190815260200160002060010154036110c2576040517f08c379a00000000000000000000000000000000000000000000000000000000081526004016110b990612948565b60405180910390fd5b60005b600360003373ffffffffffffffffffffffffffffffffffffffff1673ffffffffffffffffffffffffffffffffffffffff168152602001908152602001600020600201805490508110156111fc576000600360003373ffffffffffffffffffffffffffffffffffffffff1673ffffffffffffffffffffffffffffffffffffffff168152602001908152602001600020600201828154811061116857611167612825565b5b906000526020600020015490508280519060200120600560008381526020019081526020016000206001016040516111a09190612a07565b6040518091039020036111e8576040517f08c379a00000000000000000000000000000000000000000000000000000000081526004016111df90612a90565b60405180910390fd5b5080806111f4906128b4565b9150506110c5565b50600180600082825461120f9190612717565b92505081905550600061122133610b97565b90506040518060a00160405280600154815260200183815260200182815260200185815260200184815250600560006001548152602001908152602001600020600082015181600001556020820151816001019080519060200190611287929190611c87565b5060408201518160020190805190602001906112a4929190611c87565b5060608201518160030190805190602001906112c1929190611c87565b506080820151816004015590505060096001549080600181540180825580915050600190039060005260206000200160009091909190915055600360003373ffffffffffffffffffffffffffffffffffffffff1673ffffffffffffffffffffffffffffffffffffffff168152602001908152602001600020600201600154908060018154018082558091505060019003906000526020600020016000909190919091505550505050565b6008818154811061137b57600080fd5b906000526020600020016000915054906101000a900473ffffffffffffffffffffffffffffffffffffffff1681565b60025481565b6000600560008381526020019081526020016000206000015403611409576040517f08c379a0000000000000000000000000000000000000000000000000000000008152600401611400906126c8565b60405180910390fd5b6005600082815260200190815260200160002060040154341015611462576040517f08c379a000000000000000000000000000000000000000000000000000000000815260040161145990612b22565b60405180910390fd5b6007600082815260200190815260200160002060003373ffffffffffffffffffffffffffffffffffffffff1673ffffffffffffffffffffffffffffffffffffffff16815260200190815260200160002060009054906101000a900460ff1615611500576040517f08c379a00000000000000000000000000000000000000000000000000000000081526004016114f790612bb4565b60405180910390fd5b600061150b33610b97565b90506115178282610e39565b1561152157600080fd5b60016007600084815260200190815260200160002060003373ffffffffffffffffffffffffffffffffffffffff1673ffffffffffffffffffffffffffffffffffffffff16815260200190815260200160002060006101000a81548160ff02191690831515021790555060006004600560008581526020019081526020016000206002016040516115b19190612c68565b908152602001604051809103902060009054906101000a900473ffffffffffffffffffffffffffffffffffffffff1690508073ffffffffffffffffffffffffffffffffffffffff166108fc349081150290604051600060405180830381858888f19350505050158015611628573d6000803e3d6000fd5b503373ffffffffffffffffffffffffffffffffffffffff167f8783a59bb31a3ed0ce473d067914d5ba7a619424577e534f14e95ccd3486884f8434604051611671929190612c7f565b60405180910390a2505050565b60076020528160005260406000206020528060005260406000206000915091509054906101000a900460ff1681565b6006602052816000526040600020602052806000526040600020600091509150505481565b60003411611715576040517f08c379a000000000000000000000000000000000000000000000000000000000815260040161170c90612d1a565b60405180910390fd5b600073ffffffffffffffffffffffffffffffffffffffff168173ffffffffffffffffffffffffffffffffffffffff1603611784576040517f08c379a000000000000000000000000000000000000000000000000000000000815260040161177b90612d86565b60405180910390fd5b8073ffffffffffffffffffffffffffffffffffffffff166108fc349081150290604051600060405180830381858888f193505050501580156117ca573d6000803e3d6000fd5b503373ffffffffffffffffffffffffffffffffffffffff168173ffffffffffffffffffffffffffffffffffffffff167f70c6bc6cf53707fb5561feef795d557f7e46f57bd4f1a13ce36e9ffdf58d38bb34604051611828919061211f565b60405180910390a350565b6009818154811061184357600080fd5b906000526020600020016000915090505481565b6000600360003373ffffffffffffffffffffffffffffffffffffffff1673ffffffffffffffffffffffffffffffffffffffff16815260200190815260200160002060010154146118dc576040517f08c379a00000000000000000000000000000000000000000000000000000000081526004016118d390612df2565b60405180910390fd5b600073ffffffffffffffffffffffffffffffffffffffff1660048260405161190491906125f9565b908152602001604051809103902060009054906101000a900473ffffffffffffffffffffffffffffffffffffffff1673ffffffffffffffffffffffffffffffffffffffff1614611989576040517f08c379a000000000000000000000000000000000000000000000000000000000815260040161198090612e5e565b60405180910390fd5b600160008082825461199b9190612717565b925050819055506119aa611d0d565b81816000018190525060005481602001818152505080600360003373ffffffffffffffffffffffffffffffffffffffff1673ffffffffffffffffffffffffffffffffffffffff1681526020019081526020016000206000820151816000019080519060200190611a1b929190611c87565b50602082015181600101556040820151816002019080519060200190611a42929190611d2e565b509050506008339080600181540180825580915050600190039060005260206000200160009091909190916101000a81548173ffffffffffffffffffffffffffffffffffffffff021916908373ffffffffffffffffffffffffffffffffffffffff16021790555033600483604051611aba91906125f9565b908152602001604051809103902060006101000a81548173ffffffffffffffffffffffffffffffffffffffff021916908373ffffffffffffffffffffffffffffffffffffffff1602179055505050565b6004818051602081018201805184825260208301602085012081835280955050505050506000915054906101000a900473ffffffffffffffffffffffffffffffffffffffff1681565b6003602052806000526040600020600091509050806000018054611b7690612883565b80601f0160208091040260200160405190810160405280929190818152602001828054611ba290612883565b8015611bef5780601f10611bc457610100808354040283529160200191611bef565b820191906000526020600020905b815481529060010190602001808311611bd257829003601f168201915b5050505050908060010154905082565b600081604051602001611c1291906125f9565b6040516020818303038152906040528051906020012083604051602001611c3991906125f9565b6040516020818303038152906040528051906020012014905092915050565b6040518060a0016040528060008152602001606081526020016060815260200160608152602001600081525090565b828054611c9390612883565b90600052602060002090601f016020900481019282611cb55760008555611cfc565b82601f10611cce57805160ff1916838001178555611cfc565b82800160010185558215611cfc579182015b82811115611cfb578251825591602001919060010190611ce0565b5b509050611d099190611d7b565b5090565b60405180606001604052806060815260200160008152602001606081525090565b828054828255906000526020600020908101928215611d6a579160200282015b82811115611d69578251825591602001919060010190611d4e565b5b509050611d779190611d7b565b5090565b5b80821115611d94576000816000905550600101611d7c565b5090565b6000604051905090565b600080fd5b600080fd5b600080fd5b600080fd5b6000601f19601f8301169050919050565b7f4e487b7100000000000000000000000000000000000000000000000000000000600052604160045260246000fd5b611dff82611db6565b810181811067ffffffffffffffff82111715611e1e57611e1d611dc7565b5b80604052505050565b6000611e31611d98565b9050611e3d8282611df6565b919050565b600067ffffffffffffffff821115611e5d57611e5c611dc7565b5b611e6682611db6565b9050602081019050919050565b82818337600083830152505050565b6000611e95611e9084611e42565b611e27565b905082815260208101848484011115611eb157611eb0611db1565b5b611ebc848285611e73565b509392505050565b600082601f830112611ed957611ed8611dac565b5b8135611ee9848260208601611e82565b91505092915050565b600060208284031215611f0857611f07611da2565b5b600082013567ffffffffffffffff811115611f2657611f25611da7565b5b611f3284828501611ec4565b91505092915050565b600073ffffffffffffffffffffffffffffffffffffffff82169050919050565b6000611f6682611f3b565b9050919050565b611f7681611f5b565b82525050565b6000602082019050611f916000830184611f6d565b92915050565b600081519050919050565b600082825260208201905092915050565b6000819050602082019050919050565b611fcc81611f5b565b82525050565b6000611fde8383611fc3565b60208301905092915050565b6000602082019050919050565b600061200282611f97565b61200c8185611fa2565b935061201783611fb3565b8060005b8381101561204857815161202f8882611fd2565b975061203a83611fea565b92505060018101905061201b565b5085935050505092915050565b6000602082019050818103600083015261206f8184611ff7565b905092915050565b61208081611f5b565b811461208b57600080fd5b50565b60008135905061209d81612077565b92915050565b6000602082840312156120b9576120b8611da2565b5b60006120c78482850161208e565b91505092915050565b60008115159050919050565b6120e5816120d0565b82525050565b600060208201905061210060008301846120dc565b92915050565b6000819050919050565b61211981612106565b82525050565b60006020820190506121346000830184612110565b92915050565b61214381612106565b811461214e57600080fd5b50565b6000813590506121608161213a565b92915050565b60006020828403121561217c5761217b611da2565b5b600061218a84828501612151565b91505092915050565b600081519050919050565b600082825260208201905092915050565b6000819050602082019050919050565b6121c881612106565b82525050565b600081519050919050565b600082825260208201905092915050565b60005b838110156122085780820151818401526020810190506121ed565b83811115612217576000848401525b50505050565b6000612228826121ce565b61223281856121d9565b93506122428185602086016121ea565b61224b81611db6565b840191505092915050565b600060a08301600083015161226e60008601826121bf565b5060208301518482036020860152612286828261221d565b915050604083015184820360408601526122a0828261221d565b915050606083015184820360608601526122ba828261221d565b91505060808301516122cf60808601826121bf565b508091505092915050565b60006122e68383612256565b905092915050565b6000602082019050919050565b600061230682612193565b612310818561219e565b935083602082028501612322856121af565b8060005b8581101561235e578484038952815161233f85826122da565b945061234a836122ee565b925060208a01995050600181019050612326565b50829750879550505050505092915050565b6000602082019050818103600083015261238a81846122fb565b905092915050565b600082825260208201905092915050565b60006123ae826121ce565b6123b88185612392565b93506123c88185602086016121ea565b6123d181611db6565b840191505092915050565b600060208201905081810360008301526123f681846123a3565b905092915050565b600060a0820190506124136000830188612110565b818103602083015261242581876123a3565b9050818103604083015261243981866123a3565b9050818103606083015261244d81856123a3565b905061245c6080830184612110565b9695505050505050565b6000806040838503121561247d5761247c611da2565b5b600061248b85828601612151565b925050602083013567ffffffffffffffff8111156124ac576124ab611da7565b5b6124b885828601611ec4565b9150509250929050565b6000806000606084860312156124db576124da611da2565b5b600084013567ffffffffffffffff8111156124f9576124f8611da7565b5b61250586828701611ec4565b935050602061251686828701612151565b925050604084013567ffffffffffffffff81111561253757612536611da7565b5b61254386828701611ec4565b9150509250925092565b6000806040838503121561256457612563611da2565b5b600061257285828601612151565b92505060206125838582860161208e565b9150509250929050565b600060408201905081810360008301526125a781856123a3565b90506125b66020830184612110565b9392505050565b600081905092915050565b60006125d3826121ce565b6125dd81856125bd565b93506125ed8185602086016121ea565b80840191505092915050565b600061260582846125c8565b915081905092915050565b7f417274697374206e6f7420666f756e642e000000000000000000000000000000600082015250565b6000612646601183612392565b915061265182612610565b602082019050919050565b6000602082019050818103600083015261267581612639565b9050919050565b7f536f6e6720646f6573206e6f7420657869737400000000000000000000000000600082015250565b60006126b2601383612392565b91506126bd8261267c565b602082019050919050565b600060208201905081810360008301526126e1816126a5565b9050919050565b7f4e487b7100000000000000000000000000000000000000000000000000000000600052601160045260246000fd5b600061272282612106565b915061272d83612106565b9250827fffffffffffffffffffffffffffffffffffffffffffffffffffffffffffffffff03821115612762576127616126e8565b5b828201905092915050565b7f596f75206e65656420746f207075726368617365207468697320736f6e67206160008201527f66746572206c697374656e696e67206d6f7265207468616e207468652074687260208201527f6573686f6c642e00000000000000000000000000000000000000000000000000604082015250565b60006127ef604783612392565b91506127fa8261276d565b606082019050919050565b6000602082019050818103600083015261281e816127e2565b9050919050565b7f4e487b7100000000000000000000000000000000000000000000000000000000600052603260045260246000fd5b7f4e487b7100000000000000000000000000000000000000000000000000000000600052602260045260246000fd5b6000600282049050600182168061289b57607f821691505b6020821081036128ae576128ad612854565b5b50919050565b60006128bf82612106565b91507fffffffffffffffffffffffffffffffffffffffffffffffffffffffffffffffff82036128f1576128f06126e8565b5b600182019050919050565b7f55736572206e6f7420726567697374657265642e000000000000000000000000600082015250565b6000612932601483612392565b915061293d826128fc565b602082019050919050565b6000602082019050818103600083015261296181612925565b9050919050565b600081905092915050565b60008190508160005260206000209050919050565b6000815461299581612883565b61299f8186612968565b945060018216600081146129ba57600181146129cb576129fe565b60ff198316865281860193506129fe565b6129d485612973565b60005b838110156129f6578154818901526001820191506020810190506129d7565b838801955050505b50505092915050565b6000612a138284612988565b915081905092915050565b7f536f6e6720616c72656164792075706c6f61646564206279207468697320757360008201527f65722e0000000000000000000000000000000000000000000000000000000000602082015250565b6000612a7a602383612392565b9150612a8582612a1e565b604082019050919050565b60006020820190508181036000830152612aa981612a6d565b9050919050565b7f4e6f7420656e6f75676820457468657220746f2070757263686173652074686560008201527f20736f6e67000000000000000000000000000000000000000000000000000000602082015250565b6000612b0c602583612392565b9150612b1782612ab0565b604082019050919050565b60006020820190508181036000830152612b3b81612aff565b9050919050565b7f596f75206861766520616c72656164792070757263686173656420746869732060008201527f736f6e6700000000000000000000000000000000000000000000000000000000602082015250565b6000612b9e602483612392565b9150612ba982612b42565b604082019050919050565b60006020820190508181036000830152612bcd81612b91565b9050919050565b60008190508160005260206000209050919050565b60008154612bf681612883565b612c0081866125bd565b94506001821660008114612c1b5760018114612c2c57612c5f565b60ff19831686528186019350612c5f565b612c3585612bd4565b60005b83811015612c5757815481890152600182019150602081019050612c38565b838801955050505b50505092915050565b6000612c748284612be9565b915081905092915050565b6000604082019050612c946000830185612110565b612ca16020830184612110565b9392505050565b7f446f6e6174696f6e20616d6f756e74206d75737420626520677265617465722060008201527f7468616e207a65726f0000000000000000000000000000000000000000000000602082015250565b6000612d04602983612392565b9150612d0f82612ca8565b604082019050919050565b60006020820190508181036000830152612d3381612cf7565b9050919050565b7f496e76616c696420617274697374206164647265737300000000000000000000600082015250565b6000612d70601683612392565b9150612d7b82612d3a565b602082019050919050565b60006020820190508181036000830152612d9f81612d63565b9050919050565b7f5573657220616c726561647920726567697374657265642e0000000000000000600082015250565b6000612ddc601883612392565b9150612de782612da6565b602082019050919050565b60006020820190508181036000830152612e0b81612dcf565b9050919050565b7f557365726e616d6520616c72656164792074616b656e2e000000000000000000600082015250565b6000612e48601783612392565b9150612e5382612e12565b602082019050919050565b60006020820190508181036000830152612e7781612e3b565b905091905056fea26469706673582212203462b1948375a482ac5522bc84c18a0003569af33a03de2f19b4474b3dd8da0c64736f6c634300080d0033",
  "immutableReferences": {},
  "source": "pragma solidity >=0.4.22 <0.9.0;\r\n\r\ncontract Melovibz {\r\n\r\n    uint256 public number_of_users;\r\n    uint256 public number_of_songs;\r\n    uint256 public listenThreshold = 2;\r\n\r\n    mapping(address => User) public allUsers;\r\n    mapping(string => address) public userAddressesByName;\r\n    mapping(uint256 => Song) public songs;\r\n    mapping(uint256 => mapping(address => uint256)) public songListenCountByUser; // Track number of listens per user for each song\r\n    mapping(uint256 => mapping(address => bool)) public songPurchasedByUser; // Track if a user has purchased the song\r\n    address[] public userAddresses;\r\n    uint256[] public allSongIds; // Array to store all song IDs\r\n\r\n    constructor() public {\r\n        number_of_users = 0;\r\n        number_of_songs = 0;\r\n    }\r\n\r\n    struct User {\r\n        string name;\r\n        uint256 userID;\r\n        uint256[] songsPublished;\r\n    }\r\n\r\n    struct Song {\r\n        uint256 songID;\r\n\r\n        string ipfsHash;\r\n        string owner;\r\n        string song_name;\r\n        uint256 price;\r\n    }\r\n\r\n    function compareStrings(string memory a, string memory b) internal pure returns (bool) {\r\n        return keccak256(abi.encodePacked(a)) == keccak256(abi.encodePacked(b));\r\n    }\r\n\r\n    function add_new_user(string memory _name) public {\r\n        require(allUsers[msg.sender].userID == 0, \"User already registered.\");\r\n        require(userAddressesByName[_name] == address(0), \"Username already taken.\"); // Prevent duplicate names\r\n        number_of_users += 1;\r\n        User memory newUser;\r\n        newUser.name = _name;\r\n        newUser.userID = number_of_users;\r\n        allUsers[msg.sender] = newUser;\r\n        userAddresses.push(msg.sender);\r\n        userAddressesByName[_name] = msg.sender;\r\n    }\r\n\r\n    function getuserAddresses() public view returns (address[] memory) {\r\n        return userAddresses;\r\n    }\r\n\r\n    function isUserRegistered(address user) public view returns (bool) {\r\n        return allUsers[user].userID != 0;\r\n    }\r\n\r\n    function get_user_name(address user) public view returns (string memory) {\r\n        return allUsers[user].name;\r\n    }\r\n\r\n    function getUserAddressByName(string memory _name) public view returns (address) {\r\n        address artistAddress = userAddressesByName[_name];\r\n        require(artistAddress != address(0), \"Artist not found.\");  // Ensure artist exists\r\n        return artistAddress;\r\n    }\r\n\r\n    event DonationMade(address indexed artist, address indexed donor, uint256 amount);\r\n    event SongPurchased(address indexed buyer, uint256 songID, uint256 price);\r\n\r\n    function donateArtist(address artistAddress) public payable {\r\n        require(msg.value > 0, \"Donation amount must be greater than zero\");\r\n        require(artistAddress != address(0), \"Invalid artist address\");\r\n\r\n        // Perform the donation logic, e.g., transferring ETH to the artist\r\n        payable(artistAddress).transfer(msg.value);\r\n\r\n        // Emit the DonationMade event with the artist's address\r\n        emit DonationMade(artistAddress, msg.sender, msg.value);\r\n    }\r\n\r\n    function publishSong(string memory song_name,uint256 price,string memory _ipfsHash) public {\r\n        require(allUsers[msg.sender].userID != 0, \"User not registered.\"); // Ensure user is registered\r\n\r\n        for (uint i = 0; i < allUsers[msg.sender].songsPublished.length; i++) {\r\n            uint256 songId = allUsers[msg.sender].songsPublished[i];\r\n            if (keccak256(bytes(songs[songId].ipfsHash)) == keccak256(bytes(_ipfsHash))) {\r\n                revert(\"Song already uploaded by this user.\");\r\n            }\r\n        }\r\n\r\n        number_of_songs += 1;\r\n        string memory name = get_user_name(msg.sender);\r\n        songs[number_of_songs] = Song(number_of_songs, _ipfsHash,name,song_name,price);\r\n        allSongIds.push(number_of_songs);\r\n\r\n        // Associate the song with the user\r\n        allUsers[msg.sender].songsPublished.push(number_of_songs);\r\n    }\r\n\r\n    function getAllSongs() public view returns (Song[] memory) {\r\n        Song[] memory allSongs = new Song[](allSongIds.length);\r\n\r\n        for (uint256 i = 0; i < allSongIds.length; i++) {\r\n            uint256 songId = allSongIds[i];\r\n            allSongs[i] = songs[songId]; // Retrieve the Song object using the songId\r\n        }\r\n\r\n        return allSongs;\r\n    }\r\n\r\n    function isCurrentUserOwner(uint256 songID, string memory currentUser) public view returns (bool) {\r\n        // Fetch the song using songID\r\n        Song memory song = songs[songID];\r\n        \r\n        // Compare the owner's name with the current user\r\n        return compareStrings(song.owner, currentUser);\r\n    }\r\n\r\n    function listenToSong(uint256 songID) public {\r\n        require(songs[songID].songID != 0, \"Song does not exist\");\r\n\r\n        // Increment the listen count for the user for this song\r\n        songListenCountByUser[songID][msg.sender] += 1;\r\n        string memory curr_user_name=get_user_name(msg.sender);\r\n        // If the listen count exceeds the threshold and the user is not the owner, they must purchase the song\r\n        if (songListenCountByUser[songID][msg.sender] > listenThreshold && !isCurrentUserOwner(songID,curr_user_name) && !songPurchasedByUser[songID][msg.sender])\r\n        {\r\n            revert(\"You need to purchase this song after listening more than the threshold.\");\r\n        }\r\n    }\r\n\r\n    function purchaseSong(uint256 songID) public payable {\r\n        require(songs[songID].songID != 0, \"Song does not exist\");\r\n        require(msg.value >= songs[songID].price, \"Not enough Ether to purchase the song\");\r\n        require(!songPurchasedByUser[songID][msg.sender], \"You have already purchased this song\");\r\n        string memory curr_user_name=get_user_name(msg.sender);\r\n        require(!isCurrentUserOwner(songID,curr_user_name));\r\n        // Mark the song as purchased by the user\r\n        songPurchasedByUser[songID][msg.sender] = true;\r\n\r\n        // Transfer the payment to the artist\r\n        address artistAddress = userAddressesByName[songs[songID].owner];\r\n        payable(artistAddress).transfer(msg.value);\r\n\r\n        emit SongPurchased(msg.sender, songID, msg.value);\r\n    }\r\n\r\n}\r\n",
  "sourcePath": "D:\\Blockchain\\melovibz-dapp\\contracts\\Melovibz.sol",
  "compiler": {
    "name": "solc",
    "version": "0.8.13+commit.abaa5c0e.Emscripten.clang"
  },
  "schemaVersion": "3.4.16",
  "updatedAt": "2024-11-06T15:56:47.435Z",
  "networkType": "ethereum",
  "devdoc": {
    "kind": "dev",
    "methods": {},
    "version": 1
  },
  "userdoc": {
    "kind": "user",
    "methods": {},
    "version": 1
  }
}