{
  "contractName": "Melovibz",
  "abi": [
    {
      "inputs": [],
      "stateMutability": "nonpayable",
      "type": "constructor"
    },
    {
      "anonymous": false,
      "inputs": [
        {
          "indexed": true,
          "internalType": "address",
          "name": "artist",
          "type": "address"
        },
        {
          "indexed": true,
          "internalType": "address",
          "name": "donor",
          "type": "address"
        },
        {
          "indexed": false,
          "internalType": "uint256",
          "name": "amount",
          "type": "uint256"
        }
      ],
      "name": "DonationMade",
      "type": "event"
    },
    {
      "inputs": [
        {
          "internalType": "address",
          "name": "",
          "type": "address"
        }
      ],
      "name": "allUsers",
      "outputs": [
        {
          "internalType": "string",
          "name": "name",
          "type": "string"
        },
        {
          "internalType": "uint256",
          "name": "userID",
          "type": "uint256"
        }
      ],
      "stateMutability": "view",
      "type": "function",
      "constant": true
    },
    {
      "inputs": [],
      "name": "number_of_users",
      "outputs": [
        {
          "internalType": "uint256",
          "name": "",
          "type": "uint256"
        }
      ],
      "stateMutability": "view",
      "type": "function",
      "constant": true
    },
    {
      "inputs": [
        {
          "internalType": "uint256",
          "name": "",
          "type": "uint256"
        }
      ],
      "name": "userAddresses",
      "outputs": [
        {
          "internalType": "address",
          "name": "",
          "type": "address"
        }
      ],
      "stateMutability": "view",
      "type": "function",
      "constant": true
    },
    {
      "inputs": [
        {
          "internalType": "string",
          "name": "",
          "type": "string"
        }
      ],
      "name": "userAddressesByName",
      "outputs": [
        {
          "internalType": "address",
          "name": "",
          "type": "address"
        }
      ],
      "stateMutability": "view",
      "type": "function",
      "constant": true
    },
    {
      "inputs": [
        {
          "internalType": "string",
          "name": "_name",
          "type": "string"
        }
      ],
      "name": "add_new_user",
      "outputs": [],
      "stateMutability": "nonpayable",
      "type": "function"
    },
    {
      "inputs": [],
      "name": "getuserAddresses",
      "outputs": [
        {
          "internalType": "address[]",
          "name": "",
          "type": "address[]"
        }
      ],
      "stateMutability": "view",
      "type": "function",
      "constant": true
    },
    {
      "inputs": [
        {
          "internalType": "address",
          "name": "user",
          "type": "address"
        }
      ],
      "name": "isUserRegistered",
      "outputs": [
        {
          "internalType": "bool",
          "name": "",
          "type": "bool"
        }
      ],
      "stateMutability": "view",
      "type": "function",
      "constant": true
    },
    {
      "inputs": [
        {
          "internalType": "address",
          "name": "user",
          "type": "address"
        }
      ],
      "name": "get_user_name",
      "outputs": [
        {
          "internalType": "string",
          "name": "",
          "type": "string"
        }
      ],
      "stateMutability": "view",
      "type": "function",
      "constant": true
    },
    {
      "inputs": [
        {
          "internalType": "string",
          "name": "_name",
          "type": "string"
        }
      ],
      "name": "getUserAddressByName",
      "outputs": [
        {
          "internalType": "address",
          "name": "",
          "type": "address"
        }
      ],
      "stateMutability": "view",
      "type": "function",
      "constant": true
    },
    {
      "inputs": [
        {
          "internalType": "address",
          "name": "artistAddress",
          "type": "address"
        }
      ],
      "name": "donateArtist",
      "outputs": [],
      "stateMutability": "payable",
      "type": "function",
      "payable": true
    }
  ],
  "bytecode": "0x608060405234801561001057600080fd5b50600080819055506113f1806100276000396000f3fe6080604052600436106100915760003560e01c8063502c9bd511610059578063502c9bd5146101a3578063b699a7bb146101e0578063d5b97893146101fc578063eae4b0e714610225578063edbece371461026257610091565b806307e084eb146100965780630989777f146100d3578063163f7522146100fe578063228211321461013b5780632b9575aa14610166575b600080fd5b3480156100a257600080fd5b506100bd60048036038101906100b89190610cc6565b6102a0565b6040516100ca9190610d50565b60405180910390f35b3480156100df57600080fd5b506100e861035c565b6040516100f59190610e29565b60405180910390f35b34801561010a57600080fd5b5061012560048036038101906101209190610e77565b6103ea565b6040516101329190610ebf565b60405180910390f35b34801561014757600080fd5b50610150610439565b60405161015d9190610ef3565b60405180910390f35b34801561017257600080fd5b5061018d60048036038101906101889190610e77565b61043f565b60405161019a9190610f96565b60405180910390f35b3480156101af57600080fd5b506101ca60048036038101906101c59190610fe4565b610513565b6040516101d79190610d50565b60405180910390f35b6101fa60048036038101906101f59190610e77565b610552565b005b34801561020857600080fd5b50610223600480360381019061021e9190610cc6565b6106b3565b005b34801561023157600080fd5b5061024c60048036038101906102479190610cc6565b610966565b6040516102599190610d50565b60405180910390f35b34801561026e57600080fd5b5061028960048036038101906102849190610e77565b6109af565b604051610297929190611011565b60405180910390f35b6000806002836040516102b3919061107d565b908152602001604051809103902060009054906101000a900473ffffffffffffffffffffffffffffffffffffffff169050600073ffffffffffffffffffffffffffffffffffffffff168173ffffffffffffffffffffffffffffffffffffffff1603610353576040517f08c379a000000000000000000000000000000000000000000000000000000000815260040161034a906110e0565b60405180910390fd5b80915050919050565b606060038054806020026020016040519081016040528092919081815260200182805480156103e057602002820191906000526020600020905b8160009054906101000a900473ffffffffffffffffffffffffffffffffffffffff1673ffffffffffffffffffffffffffffffffffffffff1681526020019060010190808311610396575b5050505050905090565b600080600160008473ffffffffffffffffffffffffffffffffffffffff1673ffffffffffffffffffffffffffffffffffffffff1681526020019081526020016000206001015414159050919050565b60005481565b6060600160008373ffffffffffffffffffffffffffffffffffffffff1673ffffffffffffffffffffffffffffffffffffffff168152602001908152602001600020600001805461048e9061112f565b80601f01602080910402602001604051908101604052809291908181526020018280546104ba9061112f565b80156105075780601f106104dc57610100808354040283529160200191610507565b820191906000526020600020905b8154815290600101906020018083116104ea57829003601f168201915b50505050509050919050565b6003818154811061052357600080fd5b906000526020600020016000915054906101000a900473ffffffffffffffffffffffffffffffffffffffff1681565b60003411610595576040517f08c379a000000000000000000000000000000000000000000000000000000000815260040161058c906111d2565b60405180910390fd5b600073ffffffffffffffffffffffffffffffffffffffff168173ffffffffffffffffffffffffffffffffffffffff1603610604576040517f08c379a00000000000000000000000000000000000000000000000000000000081526004016105fb9061123e565b60405180910390fd5b8073ffffffffffffffffffffffffffffffffffffffff166108fc349081150290604051600060405180830381858888f1935050505015801561064a573d6000803e3d6000fd5b503373ffffffffffffffffffffffffffffffffffffffff168173ffffffffffffffffffffffffffffffffffffffff167f70c6bc6cf53707fb5561feef795d557f7e46f57bd4f1a13ce36e9ffdf58d38bb346040516106a89190610ef3565b60405180910390a350565b6000600160003373ffffffffffffffffffffffffffffffffffffffff1673ffffffffffffffffffffffffffffffffffffffff1681526020019081526020016000206001015414610738576040517f08c379a000000000000000000000000000000000000000000000000000000000815260040161072f906112aa565b60405180910390fd5b600073ffffffffffffffffffffffffffffffffffffffff16600282604051610760919061107d565b908152602001604051809103902060009054906101000a900473ffffffffffffffffffffffffffffffffffffffff1673ffffffffffffffffffffffffffffffffffffffff16146107e5576040517f08c379a00000000000000000000000000000000000000000000000000000000081526004016107dc90611316565b60405180910390fd5b60016000808282546107f79190611365565b92505081905550610806610a5b565b81816000018190525060005481602001818152505080600160003373ffffffffffffffffffffffffffffffffffffffff1673ffffffffffffffffffffffffffffffffffffffff1681526020019081526020016000206000820151816000019080519060200190610877929190610a7c565b5060208201518160010155604082015181600201908051906020019061089e929190610b02565b509050506003339080600181540180825580915050600190039060005260206000200160009091909190916101000a81548173ffffffffffffffffffffffffffffffffffffffff021916908373ffffffffffffffffffffffffffffffffffffffff16021790555033600283604051610916919061107d565b908152602001604051809103902060006101000a81548173ffffffffffffffffffffffffffffffffffffffff021916908373ffffffffffffffffffffffffffffffffffffffff1602179055505050565b6002818051602081018201805184825260208301602085012081835280955050505050506000915054906101000a900473ffffffffffffffffffffffffffffffffffffffff1681565b60016020528060005260406000206000915090508060000180546109d29061112f565b80601f01602080910402602001604051908101604052809291908181526020018280546109fe9061112f565b8015610a4b5780601f10610a2057610100808354040283529160200191610a4b565b820191906000526020600020905b815481529060010190602001808311610a2e57829003601f168201915b5050505050908060010154905082565b60405180606001604052806060815260200160008152602001606081525090565b828054610a889061112f565b90600052602060002090601f016020900481019282610aaa5760008555610af1565b82601f10610ac357805160ff1916838001178555610af1565b82800160010185558215610af1579182015b82811115610af0578251825591602001919060010190610ad5565b5b509050610afe9190610b4f565b5090565b828054828255906000526020600020908101928215610b3e579160200282015b82811115610b3d578251825591602001919060010190610b22565b5b509050610b4b9190610b4f565b5090565b5b80821115610b68576000816000905550600101610b50565b5090565b6000604051905090565b600080fd5b600080fd5b600080fd5b600080fd5b6000601f19601f8301169050919050565b7f4e487b7100000000000000000000000000000000000000000000000000000000600052604160045260246000fd5b610bd382610b8a565b810181811067ffffffffffffffff82111715610bf257610bf1610b9b565b5b80604052505050565b6000610c05610b6c565b9050610c118282610bca565b919050565b600067ffffffffffffffff821115610c3157610c30610b9b565b5b610c3a82610b8a565b9050602081019050919050565b82818337600083830152505050565b6000610c69610c6484610c16565b610bfb565b905082815260208101848484011115610c8557610c84610b85565b5b610c90848285610c47565b509392505050565b600082601f830112610cad57610cac610b80565b5b8135610cbd848260208601610c56565b91505092915050565b600060208284031215610cdc57610cdb610b76565b5b600082013567ffffffffffffffff811115610cfa57610cf9610b7b565b5b610d0684828501610c98565b91505092915050565b600073ffffffffffffffffffffffffffffffffffffffff82169050919050565b6000610d3a82610d0f565b9050919050565b610d4a81610d2f565b82525050565b6000602082019050610d656000830184610d41565b92915050565b600081519050919050565b600082825260208201905092915050565b6000819050602082019050919050565b610da081610d2f565b82525050565b6000610db28383610d97565b60208301905092915050565b6000602082019050919050565b6000610dd682610d6b565b610de08185610d76565b9350610deb83610d87565b8060005b83811015610e1c578151610e038882610da6565b9750610e0e83610dbe565b925050600181019050610def565b5085935050505092915050565b60006020820190508181036000830152610e438184610dcb565b905092915050565b610e5481610d2f565b8114610e5f57600080fd5b50565b600081359050610e7181610e4b565b92915050565b600060208284031215610e8d57610e8c610b76565b5b6000610e9b84828501610e62565b91505092915050565b60008115159050919050565b610eb981610ea4565b82525050565b6000602082019050610ed46000830184610eb0565b92915050565b6000819050919050565b610eed81610eda565b82525050565b6000602082019050610f086000830184610ee4565b92915050565b600081519050919050565b600082825260208201905092915050565b60005b83811015610f48578082015181840152602081019050610f2d565b83811115610f57576000848401525b50505050565b6000610f6882610f0e565b610f728185610f19565b9350610f82818560208601610f2a565b610f8b81610b8a565b840191505092915050565b60006020820190508181036000830152610fb08184610f5d565b905092915050565b610fc181610eda565b8114610fcc57600080fd5b50565b600081359050610fde81610fb8565b92915050565b600060208284031215610ffa57610ff9610b76565b5b600061100884828501610fcf565b91505092915050565b6000604082019050818103600083015261102b8185610f5d565b905061103a6020830184610ee4565b9392505050565b600081905092915050565b600061105782610f0e565b6110618185611041565b9350611071818560208601610f2a565b80840191505092915050565b6000611089828461104c565b915081905092915050565b7f417274697374206e6f7420666f756e642e000000000000000000000000000000600082015250565b60006110ca601183610f19565b91506110d582611094565b602082019050919050565b600060208201905081810360008301526110f9816110bd565b9050919050565b7f4e487b7100000000000000000000000000000000000000000000000000000000600052602260045260246000fd5b6000600282049050600182168061114757607f821691505b60208210810361115a57611159611100565b5b50919050565b7f446f6e6174696f6e20616d6f756e74206d75737420626520677265617465722060008201527f7468616e207a65726f0000000000000000000000000000000000000000000000602082015250565b60006111bc602983610f19565b91506111c782611160565b604082019050919050565b600060208201905081810360008301526111eb816111af565b9050919050565b7f496e76616c696420617274697374206164647265737300000000000000000000600082015250565b6000611228601683610f19565b9150611233826111f2565b602082019050919050565b600060208201905081810360008301526112578161121b565b9050919050565b7f5573657220616c726561647920726567697374657265642e0000000000000000600082015250565b6000611294601883610f19565b915061129f8261125e565b602082019050919050565b600060208201905081810360008301526112c381611287565b9050919050565b7f557365726e616d6520616c72656164792074616b656e2e000000000000000000600082015250565b6000611300601783610f19565b915061130b826112ca565b602082019050919050565b6000602082019050818103600083015261132f816112f3565b9050919050565b7f4e487b7100000000000000000000000000000000000000000000000000000000600052601160045260246000fd5b600061137082610eda565b915061137b83610eda565b9250827fffffffffffffffffffffffffffffffffffffffffffffffffffffffffffffffff038211156113b0576113af611336565b5b82820190509291505056fea26469706673582212201213d3f0257093981b5fe5af94742c790db33c620615dfe4863857b4ae61dde664736f6c634300080d0033",
  "immutableReferences": {},
  "source": "pragma solidity >=0.4.22 <0.9.0;\r\n\r\ncontract Melovibz {\r\n\r\n    uint256 public number_of_users;\r\n\r\n    mapping(address => User) public allUsers;\r\n    mapping(string => address) public userAddressesByName;\r\n    address[] public userAddresses;\r\n\r\n    constructor() public {\r\n        number_of_users = 0;\r\n    }\r\n\r\n    struct User {\r\n        string name;\r\n        uint256 userID;\r\n        uint256[] songsPublished;\r\n    }\r\n\r\n    function add_new_user(string memory _name) public {\r\n        require(allUsers[msg.sender].userID == 0, \"User already registered.\");\r\n        require(userAddressesByName[_name] == address(0), \"Username already taken.\"); // Prevent duplicate names\r\n        number_of_users += 1;\r\n        User memory newUser;\r\n        newUser.name = _name;\r\n        newUser.userID = number_of_users;\r\n        allUsers[msg.sender] = newUser;\r\n        userAddresses.push(msg.sender);\r\n        userAddressesByName[_name] = msg.sender;\r\n    }\r\n\r\n    function getuserAddresses() public view returns (address[] memory) {\r\n        return userAddresses;\r\n    }\r\n\r\n    function isUserRegistered(address user) public view returns (bool) {\r\n        return allUsers[user].userID != 0;\r\n    }\r\n\r\n    function get_user_name(address user) public view returns (string memory) {\r\n        return allUsers[user].name;\r\n    }\r\n\r\n    function getUserAddressByName(string memory _name) public view returns (address) {\r\n        address artistAddress = userAddressesByName[_name];\r\n        require(artistAddress != address(0), \"Artist not found.\");  // Ensure artist exists\r\n        return artistAddress;\r\n    }\r\n\r\n\r\n    event DonationMade(address indexed artist, address indexed donor, uint256 amount);\r\n\r\n    function donateArtist(address artistAddress) public payable {\r\n        require(msg.value > 0, \"Donation amount must be greater than zero\");\r\n        require(artistAddress != address(0), \"Invalid artist address\");\r\n\r\n        // Perform the donation logic, e.g., transferring ETH to the artist\r\n        payable(artistAddress).transfer(msg.value);\r\n\r\n        // Emit the DonationMade event with the artist's address\r\n        emit DonationMade(artistAddress, msg.sender, msg.value);\r\n    }\r\n    \r\n\r\n}\r\n",
  "sourcePath": "D:\\Blockchain\\melovibz-dapp\\contracts\\Melovibz.sol",
  "compiler": {
    "name": "solc",
    "version": "0.8.13+commit.abaa5c0e.Emscripten.clang"
  },
  "schemaVersion": "3.4.16",
  "updatedAt": "2024-11-05T21:02:58.313Z",
  "networkType": "ethereum",
  "devdoc": {
    "kind": "dev",
    "methods": {},
    "version": 1
  },
  "userdoc": {
    "kind": "user",
    "methods": {},
    "version": 1
  }
}