{
  "contractName": "Melovibz",
  "abi": [
    {
      "inputs": [],
      "stateMutability": "nonpayable",
      "type": "constructor"
    },
    {
      "inputs": [
        {
          "internalType": "address",
          "name": "",
          "type": "address"
        }
      ],
      "name": "allUsers",
      "outputs": [
        {
          "internalType": "string",
          "name": "name",
          "type": "string"
        },
        {
          "internalType": "uint256",
          "name": "userID",
          "type": "uint256"
        }
      ],
      "stateMutability": "view",
      "type": "function"
    },
    {
      "inputs": [],
      "name": "number_of_users",
      "outputs": [
        {
          "internalType": "uint256",
          "name": "",
          "type": "uint256"
        }
      ],
      "stateMutability": "view",
      "type": "function"
    },
    {
      "inputs": [
        {
          "internalType": "uint256",
          "name": "",
          "type": "uint256"
        }
      ],
      "name": "userAddresses",
      "outputs": [
        {
          "internalType": "address",
          "name": "",
          "type": "address"
        }
      ],
      "stateMutability": "view",
      "type": "function"
    },
    {
      "inputs": [
        {
          "internalType": "string",
          "name": "",
          "type": "string"
        }
      ],
      "name": "userAddressesByName",
      "outputs": [
        {
          "internalType": "address",
          "name": "",
          "type": "address"
        }
      ],
      "stateMutability": "view",
      "type": "function"
    },
    {
      "inputs": [
        {
          "internalType": "string",
          "name": "_name",
          "type": "string"
        }
      ],
      "name": "add_new_user",
      "outputs": [],
      "stateMutability": "nonpayable",
      "type": "function"
    },
    {
      "inputs": [],
      "name": "getuserAddresses",
      "outputs": [
        {
          "internalType": "address[]",
          "name": "",
          "type": "address[]"
        }
      ],
      "stateMutability": "view",
      "type": "function"
    },
    {
      "inputs": [
        {
          "internalType": "address",
          "name": "user",
          "type": "address"
        }
      ],
      "name": "isUserRegistered",
      "outputs": [
        {
          "internalType": "bool",
          "name": "",
          "type": "bool"
        }
      ],
      "stateMutability": "view",
      "type": "function"
    },
    {
      "inputs": [
        {
          "internalType": "address",
          "name": "user",
          "type": "address"
        }
      ],
      "name": "get_user_name",
      "outputs": [
        {
          "internalType": "string",
          "name": "",
          "type": "string"
        }
      ],
      "stateMutability": "view",
      "type": "function"
    }
  ],
  "bytecode": "0x608060405234801561001057600080fd5b5060008081905550610dd7806100276000396000f3fe608060405234801561001057600080fd5b50600436106100885760003560e01c8063502c9bd51161005b578063502c9bd514610129578063d5b9789314610159578063eae4b0e714610175578063edbece37146101a557610088565b80630989777f1461008d578063163f7522146100ab57806322821132146100db5780632b9575aa146100f9575b600080fd5b6100956101d6565b6040516100a2919061086b565b60405180910390f35b6100c560048036038101906100c091906108cd565b610264565b6040516100d29190610915565b60405180910390f35b6100e36102b3565b6040516100f09190610949565b60405180910390f35b610113600480360381019061010e91906108cd565b6102b9565b60405161012091906109fd565b60405180910390f35b610143600480360381019061013e9190610a4b565b61038d565b6040516101509190610a87565b60405180910390f35b610173600480360381019061016e9190610bd7565b6103cc565b005b61018f600480360381019061018a9190610bd7565b610575565b60405161019c9190610a87565b60405180910390f35b6101bf60048036038101906101ba91906108cd565b6105be565b6040516101cd929190610c20565b60405180910390f35b6060600380548060200260200160405190810160405280929190818152602001828054801561025a57602002820191906000526020600020905b8160009054906101000a900473ffffffffffffffffffffffffffffffffffffffff1673ffffffffffffffffffffffffffffffffffffffff1681526020019060010190808311610210575b5050505050905090565b600080600160008473ffffffffffffffffffffffffffffffffffffffff1673ffffffffffffffffffffffffffffffffffffffff1681526020019081526020016000206001015414159050919050565b60005481565b6060600160008373ffffffffffffffffffffffffffffffffffffffff1673ffffffffffffffffffffffffffffffffffffffff168152602001908152602001600020600001805461030890610c7f565b80601f016020809104026020016040519081016040528092919081815260200182805461033490610c7f565b80156103815780601f1061035657610100808354040283529160200191610381565b820191906000526020600020905b81548152906001019060200180831161036457829003601f168201915b50505050509050919050565b6003818154811061039d57600080fd5b906000526020600020016000915054906101000a900473ffffffffffffffffffffffffffffffffffffffff1681565b6000600160003373ffffffffffffffffffffffffffffffffffffffff1673ffffffffffffffffffffffffffffffffffffffff1681526020019081526020016000206001015414610451576040517f08c379a000000000000000000000000000000000000000000000000000000000815260040161044890610cfc565b60405180910390fd5b60016000808282546104639190610d4b565b9250508190555061047261066a565b81816000018190525060005481602001818152505080600160003373ffffffffffffffffffffffffffffffffffffffff1673ffffffffffffffffffffffffffffffffffffffff16815260200190815260200160002060008201518160000190805190602001906104e392919061068b565b5060208201518160010155604082015181600201908051906020019061050a929190610711565b509050506003339080600181540180825580915050600190039060005260206000200160009091909190916101000a81548173ffffffffffffffffffffffffffffffffffffffff021916908373ffffffffffffffffffffffffffffffffffffffff1602179055505050565b6002818051602081018201805184825260208301602085012081835280955050505050506000915054906101000a900473ffffffffffffffffffffffffffffffffffffffff1681565b60016020528060005260406000206000915090508060000180546105e190610c7f565b80601f016020809104026020016040519081016040528092919081815260200182805461060d90610c7f565b801561065a5780601f1061062f5761010080835404028352916020019161065a565b820191906000526020600020905b81548152906001019060200180831161063d57829003601f168201915b5050505050908060010154905082565b60405180606001604052806060815260200160008152602001606081525090565b82805461069790610c7f565b90600052602060002090601f0160209004810192826106b95760008555610700565b82601f106106d257805160ff1916838001178555610700565b82800160010185558215610700579182015b828111156106ff5782518255916020019190600101906106e4565b5b50905061070d919061075e565b5090565b82805482825590600052602060002090810192821561074d579160200282015b8281111561074c578251825591602001919060010190610731565b5b50905061075a919061075e565b5090565b5b8082111561077757600081600090555060010161075f565b5090565b600081519050919050565b600082825260208201905092915050565b6000819050602082019050919050565b600073ffffffffffffffffffffffffffffffffffffffff82169050919050565b60006107d2826107a7565b9050919050565b6107e2816107c7565b82525050565b60006107f483836107d9565b60208301905092915050565b6000602082019050919050565b60006108188261077b565b6108228185610786565b935061082d83610797565b8060005b8381101561085e57815161084588826107e8565b975061085083610800565b925050600181019050610831565b5085935050505092915050565b60006020820190508181036000830152610885818461080d565b905092915050565b6000604051905090565b600080fd5b600080fd5b6108aa816107c7565b81146108b557600080fd5b50565b6000813590506108c7816108a1565b92915050565b6000602082840312156108e3576108e2610897565b5b60006108f1848285016108b8565b91505092915050565b60008115159050919050565b61090f816108fa565b82525050565b600060208201905061092a6000830184610906565b92915050565b6000819050919050565b61094381610930565b82525050565b600060208201905061095e600083018461093a565b92915050565b600081519050919050565b600082825260208201905092915050565b60005b8381101561099e578082015181840152602081019050610983565b838111156109ad576000848401525b50505050565b6000601f19601f8301169050919050565b60006109cf82610964565b6109d9818561096f565b93506109e9818560208601610980565b6109f2816109b3565b840191505092915050565b60006020820190508181036000830152610a1781846109c4565b905092915050565b610a2881610930565b8114610a3357600080fd5b50565b600081359050610a4581610a1f565b92915050565b600060208284031215610a6157610a60610897565b5b6000610a6f84828501610a36565b91505092915050565b610a81816107c7565b82525050565b6000602082019050610a9c6000830184610a78565b92915050565b600080fd5b600080fd5b7f4e487b7100000000000000000000000000000000000000000000000000000000600052604160045260246000fd5b610ae4826109b3565b810181811067ffffffffffffffff82111715610b0357610b02610aac565b5b80604052505050565b6000610b1661088d565b9050610b228282610adb565b919050565b600067ffffffffffffffff821115610b4257610b41610aac565b5b610b4b826109b3565b9050602081019050919050565b82818337600083830152505050565b6000610b7a610b7584610b27565b610b0c565b905082815260208101848484011115610b9657610b95610aa7565b5b610ba1848285610b58565b509392505050565b600082601f830112610bbe57610bbd610aa2565b5b8135610bce848260208601610b67565b91505092915050565b600060208284031215610bed57610bec610897565b5b600082013567ffffffffffffffff811115610c0b57610c0a61089c565b5b610c1784828501610ba9565b91505092915050565b60006040820190508181036000830152610c3a81856109c4565b9050610c49602083018461093a565b9392505050565b7f4e487b7100000000000000000000000000000000000000000000000000000000600052602260045260246000fd5b60006002820490506001821680610c9757607f821691505b602082108103610caa57610ca9610c50565b5b50919050565b7f5573657220616c726561647920726567697374657265642e0000000000000000600082015250565b6000610ce660188361096f565b9150610cf182610cb0565b602082019050919050565b60006020820190508181036000830152610d1581610cd9565b9050919050565b7f4e487b7100000000000000000000000000000000000000000000000000000000600052601160045260246000fd5b6000610d5682610930565b9150610d6183610930565b9250827fffffffffffffffffffffffffffffffffffffffffffffffffffffffffffffffff03821115610d9657610d95610d1c565b5b82820190509291505056fea2646970667358221220edbcddaba08c739de886590eaf57be892655d74277edac8e8aa4bd11e4823e4b64736f6c634300080d0033",
  "immutableReferences": {},
  "source": "pragma solidity >=0.4.22 <0.9.0;\r\n\r\ncontract Melovibz {\r\n\r\n    uint256 public number_of_users;\r\n\r\n    mapping(address => User) public allUsers;\r\n    mapping(string => address) public userAddressesByName;\r\n    address[] public userAddresses;\r\n\r\n    constructor() public {\r\n        number_of_users = 0;\r\n    }\r\n\r\n    struct User {\r\n        string name;\r\n        uint256 userID;\r\n        uint256[] songsPublished;\r\n    }\r\n\r\n    function add_new_user(string memory _name) public {\r\n        require(allUsers[msg.sender].userID == 0, \"User already registered.\");\r\n        number_of_users += 1;\r\n        User memory newUser;\r\n        newUser.name = _name;\r\n        newUser.userID = number_of_users;\r\n        allUsers[msg.sender] = newUser;\r\n        userAddresses.push(msg.sender);\r\n    }\r\n\r\n    function getuserAddresses() public view returns (address[] memory) {\r\n        return userAddresses;\r\n    }\r\n\r\n    function isUserRegistered(address user) public view returns (bool) {\r\n        return allUsers[user].userID != 0;\r\n    }\r\n\r\n    function get_user_name(address user) public view returns (string memory) {\r\n        return allUsers[user].name;\r\n    }\r\n\r\n    // function donateArtist(string memory artistName) public payable {\r\n    //     require(\r\n    //         msg.sender.balance > msg.value,\r\n    //         \"Insufficient balance to proceed.\"\r\n    //     );\r\n\r\n    //     getuserAddresses[artistName].transfer(msg.value);\r\n\r\n    //     emit artistDonated(\r\n    //         artistName,\r\n    //         allListeners[msg.sender].name,\r\n    //         msg.value\r\n    //     );\r\n    // }\r\n\r\n}\r\n",
  "sourcePath": "D:\\Blockchain\\melovibz-dapp\\contracts\\Melovibz.sol",
  "compiler": {
    "name": "solc",
    "version": "0.8.13+commit.abaa5c0e.Emscripten.clang"
  },
  "schemaVersion": "3.4.16",
  "updatedAt": "2024-11-05T17:39:16.536Z",
  "devdoc": {
    "kind": "dev",
    "methods": {},
    "version": 1
  },
  "userdoc": {
    "kind": "user",
    "methods": {},
    "version": 1
  }
}