{
  "contractName": "MusicPlatform",
  "abi": [
    {
      "anonymous": false,
      "inputs": [
        {
          "indexed": false,
          "internalType": "uint256",
          "name": "id",
          "type": "uint256"
        },
        {
          "indexed": false,
          "internalType": "address",
          "name": "buyer",
          "type": "address"
        }
      ],
      "name": "SongPurchased",
      "type": "event"
    },
    {
      "anonymous": false,
      "inputs": [
        {
          "indexed": false,
          "internalType": "uint256",
          "name": "id",
          "type": "uint256"
        },
        {
          "indexed": false,
          "internalType": "address",
          "name": "artist",
          "type": "address"
        },
        {
          "indexed": false,
          "internalType": "string",
          "name": "title",
          "type": "string"
        },
        {
          "indexed": false,
          "internalType": "string",
          "name": "ipfsHash",
          "type": "string"
        },
        {
          "indexed": false,
          "internalType": "uint256",
          "name": "price",
          "type": "uint256"
        }
      ],
      "name": "SongUploaded",
      "type": "event"
    },
    {
      "inputs": [],
      "name": "songCount",
      "outputs": [
        {
          "internalType": "uint256",
          "name": "",
          "type": "uint256"
        }
      ],
      "stateMutability": "view",
      "type": "function"
    },
    {
      "inputs": [
        {
          "internalType": "uint256",
          "name": "",
          "type": "uint256"
        }
      ],
      "name": "songs",
      "outputs": [
        {
          "internalType": "uint256",
          "name": "id",
          "type": "uint256"
        },
        {
          "internalType": "address payable",
          "name": "artist",
          "type": "address"
        },
        {
          "internalType": "string",
          "name": "title",
          "type": "string"
        },
        {
          "internalType": "string",
          "name": "ipfsHash",
          "type": "string"
        },
        {
          "internalType": "uint256",
          "name": "price",
          "type": "uint256"
        },
        {
          "internalType": "bool",
          "name": "isAvailable",
          "type": "bool"
        }
      ],
      "stateMutability": "view",
      "type": "function"
    },
    {
      "inputs": [
        {
          "internalType": "string",
          "name": "_title",
          "type": "string"
        },
        {
          "internalType": "string",
          "name": "_ipfsHash",
          "type": "string"
        },
        {
          "internalType": "uint256",
          "name": "_price",
          "type": "uint256"
        }
      ],
      "name": "uploadSong",
      "outputs": [],
      "stateMutability": "nonpayable",
      "type": "function"
    },
    {
      "inputs": [
        {
          "internalType": "uint256",
          "name": "_id",
          "type": "uint256"
        }
      ],
      "name": "purchaseSong",
      "outputs": [],
      "stateMutability": "payable",
      "type": "function"
    }
  ],
  "bytecode": "0x608060405234801561001057600080fd5b50610c33806100206000396000f3fe60806040526004361061003e5760003560e01c8062b8d61b14610043578063304cff301461006c5780637b3e4ce0146100ae578063931a889b146100ca575b600080fd5b34801561004f57600080fd5b5061006a6004803603810190610065919061076e565b6100f5565b005b34801561007857600080fd5b50610093600480360381019061008e91906107f9565b610267565b6040516100a596959493929190610919565b60405180910390f35b6100c860048036038101906100c391906107f9565b6103e0565b005b3480156100d657600080fd5b506100df610535565b6040516100ec9190610988565b60405180910390f35b60016000815480929190610108906109d2565b91905055506040518060c0016040528060015481526020013373ffffffffffffffffffffffffffffffffffffffff1681526020018481526020018381526020018281526020016001151581525060008060015481526020019081526020016000206000820151816000015560208201518160010160006101000a81548173ffffffffffffffffffffffffffffffffffffffff021916908373ffffffffffffffffffffffffffffffffffffffff16021790555060408201518160020190805190602001906101d692919061053b565b5060608201518160030190805190602001906101f392919061053b565b506080820151816004015560a08201518160050160006101000a81548160ff0219169083151502179055509050507f65467a1eb0b5bb210e19bd9e9f2aedca8b20666abc2ba65bd825b221b0a4053e6001543385858560405161025a959493929190610a3b565b60405180910390a1505050565b60006020528060005260406000206000915090508060000154908060010160009054906101000a900473ffffffffffffffffffffffffffffffffffffffff16908060020180546102b690610acb565b80601f01602080910402602001604051908101604052809291908181526020018280546102e290610acb565b801561032f5780601f106103045761010080835404028352916020019161032f565b820191906000526020600020905b81548152906001019060200180831161031257829003601f168201915b50505050509080600301805461034490610acb565b80601f016020809104026020016040519081016040528092919081815260200182805461037090610acb565b80156103bd5780601f10610392576101008083540402835291602001916103bd565b820191906000526020600020905b8154815290600101906020018083116103a057829003601f168201915b5050505050908060040154908060050160009054906101000a900460ff16905086565b600080600083815260200190815260200160002090508060040154341461043c576040517f08c379a000000000000000000000000000000000000000000000000000000000815260040161043390610b48565b60405180910390fd5b8060050160009054906101000a900460ff1661048d576040517f08c379a000000000000000000000000000000000000000000000000000000000815260040161048490610bb4565b60405180910390fd5b8060010160009054906101000a900473ffffffffffffffffffffffffffffffffffffffff1673ffffffffffffffffffffffffffffffffffffffff166108fc349081150290604051600060405180830381858888f193505050501580156104f7573d6000803e3d6000fd5b507f13ff2e487610d4962f04f81e413d391a28f469bb5a6e1793dbd29ce8121bed488233604051610529929190610bd4565b60405180910390a15050565b60015481565b82805461054790610acb565b90600052602060002090601f01602090048101928261056957600085556105b0565b82601f1061058257805160ff19168380011785556105b0565b828001600101855582156105b0579182015b828111156105af578251825591602001919060010190610594565b5b5090506105bd91906105c1565b5090565b5b808211156105da5760008160009055506001016105c2565b5090565b6000604051905090565b600080fd5b600080fd5b600080fd5b600080fd5b6000601f19601f8301169050919050565b7f4e487b7100000000000000000000000000000000000000000000000000000000600052604160045260246000fd5b610645826105fc565b810181811067ffffffffffffffff821117156106645761066361060d565b5b80604052505050565b60006106776105de565b9050610683828261063c565b919050565b600067ffffffffffffffff8211156106a3576106a261060d565b5b6106ac826105fc565b9050602081019050919050565b82818337600083830152505050565b60006106db6106d684610688565b61066d565b9050828152602081018484840111156106f7576106f66105f7565b5b6107028482856106b9565b509392505050565b600082601f83011261071f5761071e6105f2565b5b813561072f8482602086016106c8565b91505092915050565b6000819050919050565b61074b81610738565b811461075657600080fd5b50565b60008135905061076881610742565b92915050565b600080600060608486031215610787576107866105e8565b5b600084013567ffffffffffffffff8111156107a5576107a46105ed565b5b6107b18682870161070a565b935050602084013567ffffffffffffffff8111156107d2576107d16105ed565b5b6107de8682870161070a565b92505060406107ef86828701610759565b9150509250925092565b60006020828403121561080f5761080e6105e8565b5b600061081d84828501610759565b91505092915050565b61082f81610738565b82525050565b600073ffffffffffffffffffffffffffffffffffffffff82169050919050565b600061086082610835565b9050919050565b61087081610855565b82525050565b600081519050919050565b600082825260208201905092915050565b60005b838110156108b0578082015181840152602081019050610895565b838111156108bf576000848401525b50505050565b60006108d082610876565b6108da8185610881565b93506108ea818560208601610892565b6108f3816105fc565b840191505092915050565b60008115159050919050565b610913816108fe565b82525050565b600060c08201905061092e6000830189610826565b61093b6020830188610867565b818103604083015261094d81876108c5565b9050818103606083015261096181866108c5565b90506109706080830185610826565b61097d60a083018461090a565b979650505050505050565b600060208201905061099d6000830184610826565b92915050565b7f4e487b7100000000000000000000000000000000000000000000000000000000600052601160045260246000fd5b60006109dd82610738565b91507fffffffffffffffffffffffffffffffffffffffffffffffffffffffffffffffff8203610a0f57610a0e6109a3565b5b600182019050919050565b6000610a2582610835565b9050919050565b610a3581610a1a565b82525050565b600060a082019050610a506000830188610826565b610a5d6020830187610a2c565b8181036040830152610a6f81866108c5565b90508181036060830152610a8381856108c5565b9050610a926080830184610826565b9695505050505050565b7f4e487b7100000000000000000000000000000000000000000000000000000000600052602260045260246000fd5b60006002820490506001821680610ae357607f821691505b602082108103610af657610af5610a9c565b5b50919050565b7f506c656173652073656e64207468652065786163742070726963650000000000600082015250565b6000610b32601b83610881565b9150610b3d82610afc565b602082019050919050565b60006020820190508181036000830152610b6181610b25565b9050919050565b7f536f6e67206973206e6f7420617661696c61626c650000000000000000000000600082015250565b6000610b9e601583610881565b9150610ba982610b68565b602082019050919050565b60006020820190508181036000830152610bcd81610b91565b9050919050565b6000604082019050610be96000830185610826565b610bf66020830184610a2c565b939250505056fea2646970667358221220b9fd31f40da076db8b85db7ee2f3a576f9a70a9fdd4875baa2863674b5f64cdc64736f6c634300080d0033",
  "immutableReferences": {},
  "source": "// SPDX-License-Identifier: MIT\r\npragma solidity ^0.8.0;\r\n\r\ncontract MusicPlatform {\r\n    struct Song {\r\n        uint id;\r\n        address payable artist;\r\n        string title;\r\n        string ipfsHash;\r\n        uint price;\r\n        bool isAvailable;\r\n    }\r\n\r\n    mapping(uint => Song) public songs;\r\n    uint public songCount;\r\n\r\n    // Event emitted when a song is uploaded\r\n    event SongUploaded(uint id, address artist, string title, string ipfsHash, uint price);\r\n    // Event emitted when a song is purchased\r\n    event SongPurchased(uint id, address buyer);\r\n\r\n    function uploadSong(string memory _title, string memory _ipfsHash, uint _price) public {\r\n        songCount++;\r\n        songs[songCount] = Song(songCount, payable(msg.sender), _title, _ipfsHash, _price, true);\r\n        emit SongUploaded(songCount, msg.sender, _title, _ipfsHash, _price);\r\n    }\r\n\r\n    function purchaseSong(uint _id) public payable {\r\n        Song storage song = songs[_id];\r\n        require(msg.value == song.price, \"Please send the exact price\");\r\n        require(song.isAvailable, \"Song is not available\");\r\n\r\n        song.artist.transfer(msg.value);\r\n        emit SongPurchased(_id, msg.sender); // Emit purchase event\r\n    }\r\n}\r\n\r\n\r\n",
  "sourcePath": "D:\\melovibz-dapp\\contracts\\MusicPlatform.sol",
  "compiler": {
    "name": "solc",
    "version": "0.8.13+commit.abaa5c0e.Emscripten.clang"
  },
  "schemaVersion": "3.4.16",
  "updatedAt": "2024-11-04T04:54:45.779Z",
  "devdoc": {
    "kind": "dev",
    "methods": {},
    "version": 1
  },
  "userdoc": {
    "kind": "user",
    "methods": {},
    "version": 1
  }
}